{"contracts/PairLogic.sol":{"PairLogic":{"abi":[{"inputs":[{"internalType":"address","name":"_addrToken0","type":"address"},{"internalType":"address","name":"_addrToken1","type":"address"},{"internalType":"address","name":"_core","type":"address"}],"stateMutability":"nonpayable","type":"constructor"},{"inputs":[],"name":"ADDR_ETH","outputs":[{"internalType":"address","name":"","type":"address"}],"stateMutability":"view","type":"function"},{"inputs":[],"name":"ADDR_LOGICCOIN","outputs":[{"internalType":"address","name":"","type":"address"}],"stateMutability":"view","type":"function"},{"inputs":[],"name":"ADDR_LOGIC_ETH_POOL","outputs":[{"internalType":"address","name":"","type":"address"}],"stateMutability":"view","type":"function"},{"inputs":[{"internalType":"uint256","name":"token0In","type":"uint256"}],"name":"_calculateOptimalToken0ToSwap","outputs":[{"internalType":"uint256","name":"","type":"uint256"}],"stateMutability":"view","type":"function"},{"inputs":[{"internalType":"uint256","name":"token0In","type":"uint256"}],"name":"_calculateOptimalToken1ToSwap","outputs":[{"internalType":"uint256","name":"","type":"uint256"}],"stateMutability":"view","type":"function"},{"inputs":[{"internalType":"address","name":"lp","type":"address"},{"internalType":"address","name":"_addrToken0","type":"address"},{"internalType":"address","name":"_addrToken1","type":"address"},{"internalType":"uint256","name":"_token0In","type":"uint256"},{"internalType":"uint256","name":"_token1In","type":"uint256"}],"name":"addLiquidity","outputs":[{"internalType":"bool","name":"","type":"bool"}],"stateMutability":"nonpayable","type":"function"},{"inputs":[],"name":"addrToken0","outputs":[{"internalType":"address","name":"","type":"address"}],"stateMutability":"view","type":"function"},{"inputs":[],"name":"addrToken1","outputs":[{"internalType":"address","name":"","type":"address"}],"stateMutability":"view","type":"function"},{"inputs":[{"internalType":"address","name":"owner","type":"address"}],"name":"burnTokens","outputs":[{"internalType":"bool","name":"","type":"bool"}],"stateMutability":"nonpayable","type":"function"},{"inputs":[],"name":"core","outputs":[{"internalType":"address","name":"","type":"address"}],"stateMutability":"view","type":"function"},{"inputs":[{"internalType":"address","name":"_lp","type":"address"}],"name":"getLPShare0","outputs":[{"internalType":"uint256","name":"","type":"uint256"}],"stateMutability":"view","type":"function"},{"inputs":[{"internalType":"address","name":"_lp","type":"address"}],"name":"getLPShare1","outputs":[{"internalType":"uint256","name":"","type":"uint256"}],"stateMutability":"view","type":"function"},{"inputs":[],"name":"getReserve0","outputs":[{"internalType":"uint256","name":"","type":"uint256"}],"stateMutability":"view","type":"function"},{"inputs":[],"name":"getReserve1","outputs":[{"internalType":"uint256","name":"","type":"uint256"}],"stateMutability":"view","type":"function"},{"inputs":[],"name":"getliquidityProviders","outputs":[{"internalType":"address[]","name":"","type":"address[]"}],"stateMutability":"view","type":"function"},{"inputs":[{"internalType":"uint256","name":"","type":"uint256"}],"name":"liquidityProviders","outputs":[{"internalType":"address","name":"","type":"address"}],"stateMutability":"view","type":"function"},{"inputs":[{"internalType":"address","name":"","type":"address"},{"internalType":"uint256","name":"","type":"uint256"}],"name":"lpShares","outputs":[{"internalType":"uint256","name":"","type":"uint256"}],"stateMutability":"view","type":"function"},{"inputs":[],"name":"reserveToken0","outputs":[{"internalType":"uint256","name":"","type":"uint256"}],"stateMutability":"view","type":"function"},{"inputs":[],"name":"reserveToken1","outputs":[{"internalType":"uint256","name":"","type":"uint256"}],"stateMutability":"view","type":"function"},{"inputs":[{"internalType":"address","name":"_ADDR_LOGIC_ETH_POOL","type":"address"}],"name":"setLogicEthPool","outputs":[{"internalType":"bool","name":"","type":"bool"}],"stateMutability":"nonpayable","type":"function"},{"inputs":[{"internalType":"address","name":"_addrToken0","type":"address"},{"internalType":"address","name":"_addrToken1","type":"address"},{"internalType":"uint256","name":"token0In","type":"uint256"},{"internalType":"address","name":"to","type":"address"},{"internalType":"address","name":"swapper","type":"address"}],"name":"swap","outputs":[{"internalType":"uint256[2]","name":"","type":"uint256[2]"}],"stateMutability":"nonpayable","type":"function"}],"evm":{"bytecode":{"linkReferences":{},"object":"60806040523480156200001157600080fd5b5060405162001cde38038062001cde833981016040819052620000349162000094565b600080546001600160a01b039485166001600160a01b031991821617909155600180549385169382169390931790925560028054919093169116179055620000de565b80516001600160a01b03811681146200008f57600080fd5b919050565b600080600060608486031215620000aa57600080fd5b620000b58462000077565b9250620000c56020850162000077565b9150620000d56040850162000077565b90509250925092565b611bf080620000ee6000396000f3fe608060405234801561001057600080fd5b50600436106101375760003560e01c8063717dac88116100b85780639b190d181161007c5780639b190d18146102795780639f65e6a81461028c578063b237f7d41461029f578063b33c2f81146102b2578063b4d897dd146102cd578063f2f4eb26146102e857600080fd5b8063717dac88146102305780639056afb11461024357806390dc67e614610256578063962129161461025e57806399215eef1461027157600080fd5b806344c133e2116100ff57806344c133e21461019a57806344cc6549146101ba57806348349d50146101cd5780634ea5efef146101e25780636d0800b11461020557600080fd5b80630d293d3b1461013c5780631eae052914610158578063291125241461016b5780633827ebaa1461017e5780634172aee114610187575b600080fd5b61014560065481565b6040519081526020015b60405180910390f35b6101456101663660046116f4565b6102fb565b610145610179366004611724565b610365565b61014560075481565b61014561019536600461173f565b610388565b6101ad6101a8366004611769565b6103ad565b60405161014f91906117c7565b6101456101c83660046116f4565b6107b0565b6101d561081a565b60405161014f91906117f8565b6101f56101f0366004611845565b61087c565b604051901515815260200161014f565b600054610218906001600160a01b031681565b6040516001600160a01b03909116815260200161014f565b6101f561023e366004611724565b610e18565b600154610218906001600160a01b031681565b600754610145565b61021861026c3660046116f4565b610ede565b600654610145565b600354610218906001600160a01b031681565b61014561029a366004611724565b610f08565b6101f56102ad366004611724565b610f27565b610218735fbdb2315678afecb367f032d93f642f64180aa381565b61021873e7f1725e7734ce288f8367e1bb143e90bb3f051281565b600254610218906001600160a01b031681565b6006546000908161035d6107ca610357610317856107cd6111ff565b61035161034c610334623cda2061032e8a8d6111ff565b906111ff565b610346623cda2961032e60028c611994565b9061123b565b611259565b906112c8565b906112eb565b949350505050565b6001600160a01b038116600090815260046020526040812060025b015492915050565b600460205281600052604060002081600481106103a457600080fd5b01549150829050565b6103b56116d6565b6002546001600160a01b031633146103e85760405162461bcd60e51b81526004016103df906119b9565b60405180910390fd5b6001600160a01b0383166104645760405162461bcd60e51b815260206004820152603d60248201527f506169724c6f6769633a204572726f72203d3e205265636569766572206f662060448201527f746f6b656e7320616464726573732063616e6e6f74206265207a65726f00000060648201526084016103df565b600061046f856102fb565b6040516370a0823160e01b81526001600160a01b03858116600483015291925082918916906370a0823190602401602060405180830381865afa1580156104ba573d6000803e3d6000fd5b505050506040513d601f19601f820116820180604052508101906104de9190611a00565b10156104fc5760405162461bcd60e51b81526004016103df90611a19565b6000610507826107b0565b905080600754116105795760405162461bcd60e51b815260206004820152603660248201527f506169724c6f6769633a204572726f72203d3e20526573657276657320746f6f604482015275081cdb585b1b08199bdc881d1a1a5cc8185b5bdd5b9d60521b60648201526084016103df565b6040516323b872dd60e01b81526001600160a01b03858116600483015230602483015260448201889052600091908a16906323b872dd906064016020604051808303816000875af11580156105d2573d6000803e3d6000fd5b505050506040513d601f19601f820116820180604052508101906105f69190611a6d565b9050806106595760405162461bcd60e51b815260206004820152602b60248201527f506169724c6f6769633a204572726f72203d3e2053776170206661696c65642060448201526a0666f7220546f6b656e20360ac1b60648201526084016103df565b60405163a9059cbb60e01b81526001600160a01b0387811660048301526024820184905289169063a9059cbb906044016020604051808303816000875af11580156106a8573d6000803e3d6000fd5b505050506040513d601f19601f820116820180604052508101906106cc9190611a6d565b90508061072f5760405162461bcd60e51b815260206004820152602b60248201527f506169724c6f6769633a204572726f72203d3e2053776170206661696c65642060448201526a666f7220546f6b656e203160a81b60648201526084016103df565b6000546001600160a01b03908116908a160361076a57600654610752908861123b565b60065560075461076290836112c8565b60075561078b565b600754610777908861123b565b60075560065461078790836112c8565b6006555b6107936112f7565b506040805180820190915291825260208201529695505050505050565b60075460065460009190826107db6103e86103576103e561032e670de0b6b3a764000083898c6111ff565b905060006107f5836103466103e86103578a6103e56111ff565b9050600061080f8261035785670de0b6b3a76400006111ff565b979650505050505050565b6060600580548060200260200160405190810160405280929190818152602001828054801561087257602002820191906000526020600020905b81546001600160a01b03168152600190910190602001808311610854575b5050505050905090565b6002546000906001600160a01b031633146108a95760405162461bcd60e51b81526004016103df906119b9565b82826000821180156108bb5750600081115b6109225760405162461bcd60e51b815260206004820152603260248201527f506169724c6f6769633a204572726f72203d3e205a65726f206c6971756964696044820152711d1e4818d85b9b9bdd08189948185919195960721b60648201526084016103df565b8484808210610983576103e881101561094d5760405162461bcd60e51b81526004016103df90611a8f565b670de0b6b3a76400006109608284611adb565b111561097e5760405162461bcd60e51b81526004016103df90611aee565b6109d6565b6103e88210156109a55760405162461bcd60e51b81526004016103df90611a8f565b670de0b6b3a76400006109b88383611adb565b11156109d65760405162461bcd60e51b81526004016103df90611aee565b600654600754600080546001600160a01b038d8116911614610a18575050600180546000546007546006546001600160a01b039384169e50929091169b509250905b8215610a3f57610a2c82610357858c6111ff565b9950610a3c83610357848d6111ff565b98505b6040516370a0823160e01b81526001600160a01b038e811660048301528b91908e16906370a0823190602401602060405180830381865afa158015610a88573d6000803e3d6000fd5b505050506040513d601f19601f82011682018060405250810190610aac9190611a00565b1015610aca5760405162461bcd60e51b81526004016103df90611a19565b6040516370a0823160e01b81526001600160a01b038e811660048301528a91908d16906370a0823190602401602060405180830381865afa158015610b13573d6000803e3d6000fd5b505050506040513d601f19601f82011682018060405250810190610b379190611a00565b1015610ba25760405162461bcd60e51b815260206004820152603460248201527f506169724c6f6769633a204572726f72203d3e2042616c616e636520696e73756044820152736666696369656e7420666f7220546f6b656e203160601b60648201526084016103df565b6040516323b872dd60e01b81526001600160a01b038e81166004830152306024830152604482018c9052600091908e16906323b872dd906064016020604051808303816000875af1158015610bfb573d6000803e3d6000fd5b505050506040513d601f19601f82011682018060405250810190610c1f9190611a6d565b905080610c865760405162461bcd60e51b815260206004820152602f60248201527f506169724c6f6769633a204572726f72203d3e205472616e736665722046616960448201526e06c656420666f7220546f6b656e203608c1b60648201526084016103df565b6040516323b872dd60e01b81526001600160a01b038f81166004830152306024830152604482018c90528d16906323b872dd906064016020604051808303816000875af1158015610cdb573d6000803e3d6000fd5b505050506040513d601f19601f82011682018060405250810190610cff9190611a6d565b905080610d665760405162461bcd60e51b815260206004820152602f60248201527f506169724c6f6769633a204572726f72203d3e205472616e736665722046616960448201526e6c656420666f7220546f6b656e203160881b60648201526084016103df565b60058e9080600181540180825580915050600190039060005260206000200160009091909190916101000a8154816001600160a01b0302191690836001600160a01b03160217905550610dc28b8561123b90919063ffffffff16565b9350610dce838b61123b565b92508115610de55760068390556007849055610df0565b600684905560078390555b610dfc8e8e8d8d6113c8565b610e046114bf565b5060019d9c50505050505050505050505050565b6002546000906001600160a01b03163314610e455760405162461bcd60e51b81526004016103df906119b9565b600380546001600160a01b0319166001600160a01b038416908117909155610ed55760405162461bcd60e51b815260206004820152603760248201527f506169724c6f6769633a204572726f72203d3e204661696c6564207768696c6560448201527f2073657474696e67204c4f4749432f45544820706f6f6c00000000000000000060648201526084016103df565b5060015b919050565b60058181548110610eee57600080fd5b6000918252602090912001546001600160a01b0316905081565b6001600160a01b03811660009081526004602052604081206003610380565b6002546000906001600160a01b03163314610f545760405162461bcd60e51b81526004016103df906119b9565b6006546001600160a01b03831660009081526004602052604081209091610f8e91670de0b6b3a7640000916103579160025b0154906111ff565b6007546001600160a01b038516600090815260046020526040812092935091610fc791670de0b6b3a76400009161035791906003610f86565b6000805460405163a9059cbb60e01b81526001600160a01b038881166004830152602482018790529394509192169063a9059cbb906044016020604051808303816000875af115801561101e573d6000803e3d6000fd5b505050506040513d601f19601f820116820180604052508101906110429190611a6d565b9050806110a85760405162461bcd60e51b815260206004820152602e60248201527f506169724c6f6769633a204572726f72203d3e204275726e696e67204661696c60448201526d0656420666f7220546f6b656e20360941b60648201526084016103df565b6006546110b590846112c8565b6006556001600160a01b03858116600081815260046020819052604080832083815560020192909255600154915163a9059cbb60e01b815290810192909252602482018590529091169063a9059cbb906044016020604051808303816000875af1158015611127573d6000803e3d6000fd5b505050506040513d601f19601f8201168201806040525081019061114b9190611a6d565b9050806111b15760405162461bcd60e51b815260206004820152602e60248201527f506169724c6f6769633a204572726f72203d3e204275726e696e67204661696c60448201526d656420666f7220546f6b656e203160901b60648201526084016103df565b6007546111be90836112c8565b6007556001600160a01b03851660009081526004602052604081206001810182905560030155600654156111f4576111f4611591565b506001949350505050565b60008260000361121157506000611235565b61121b8284611b3f565b9050816112288483611b56565b1461123557611235611b78565b92915050565b60006112478284611b8e565b90508281101561123557611235611b78565b600060038211156112ba5750806000611273600283611b56565b61127e906001611b8e565b90505b818110156112b4579050806002816112998186611b56565b6112a39190611b8e565b6112ad9190611b56565b9050611281565b50919050565b8115610ed957506001919050565b6000828211156112da576112da611b78565b6112e48284611adb565b9392505050565b60006112e48284611b56565b60005b6005548110156113c557600060058281548110611319576113196119a3565b60009182526020808320909101546006546001600160a01b039091168084526004909252604090922090925061135f91670de0b6b3a76400009161035791906002610f86565b6001600160a01b038216600090815260046020526040902090815560075461139691670de0b6b3a764000091610357916003610f86565b6001600160a01b03821660009081526004602052604090206001015550806113bd81611ba1565b9150506112fa565b50565b6000546001600160a01b039081169084160361144f576001600160a01b0384166000908152600460205260408120611406918491905b01549061123b565b6001600160a01b038516600090815260046020526040902090815561142e90829060016113fe565b6001600160a01b0385166000908152600460205260409020600101556114b9565b6001600160a01b038416600090815260046020526040902061147490839060016113fe565b6001600160a01b0385166000908152600460205260408120600181019290925561149f9183916113fe565b6001600160a01b0385166000908152600460205260409020555b50505050565b60005b6005548110156113c5576000600582815481106114e1576114e16119a3565b60009182526020808320909101546006546001600160a01b0390911680845260049092526040832091935061152692909161035791670de0b6b3a76400009190610f86565b6001600160a01b038216600090815260046020526040902060028101919091556007546115629161035790670de0b6b3a7640000906001610f86565b6001600160a01b038216600090815260046020526040902060030155508061158981611ba1565b9150506114c2565b60005b6005548110156113c5576000600582815481106115b3576115b36119a3565b60009182526020808320909101546006546001600160a01b039091168084526004909252604083209193506115f892909161035791670de0b6b3a76400009190610f86565b6001600160a01b038216600090815260046020526040902060028101919091556007546116349161035790670de0b6b3a7640000906001610f86565b6001600160a01b0382166000908152600460205260409020600381019190915560065461167091670de0b6b3a764000091610357916002610f86565b6001600160a01b03821660009081526004602052604090209081556007546116a791670de0b6b3a764000091610357916003610f86565b6001600160a01b03821660009081526004602052604090206001015550806116ce81611ba1565b915050611594565b60405180604001604052806002906020820280368337509192915050565b60006020828403121561170657600080fd5b5035919050565b80356001600160a01b0381168114610ed957600080fd5b60006020828403121561173657600080fd5b6112e48261170d565b6000806040838503121561175257600080fd5b61175b8361170d565b946020939093013593505050565b600080600080600060a0868803121561178157600080fd5b61178a8661170d565b94506117986020870161170d565b9350604086013592506117ad6060870161170d565b91506117bb6080870161170d565b90509295509295909350565b60408101818360005b60028110156117ef5781518352602092830192909101906001016117d0565b50505092915050565b6020808252825182820181905260009190848201906040850190845b818110156118395783516001600160a01b031683529284019291840191600101611814565b50909695505050505050565b600080600080600060a0868803121561185d57600080fd5b6118668661170d565b94506118746020870161170d565b93506118826040870161170d565b94979396509394606081013594506080013592915050565b634e487b7160e01b600052601160045260246000fd5b600181815b808511156118eb5781600019048211156118d1576118d161189a565b808516156118de57918102915b93841c93908002906118b5565b509250929050565b60008261190257506001611235565b8161190f57506000611235565b8160018114611925576002811461192f5761194b565b6001915050611235565b60ff8411156119405761194061189a565b50506001821b611235565b5060208310610133831016604e8410600b841016171561196e575081810a611235565b61197883836118b0565b806000190482111561198c5761198c61189a565b029392505050565b60006112e460ff8416836118f3565b634e487b7160e01b600052603260045260246000fd5b60208082526027908201527f506169724c6f6769633a204572726f72203d3e204e6f7420616c6c6f776564206040820152661d1bc818d85b1b60ca1b606082015260800190565b600060208284031215611a1257600080fd5b5051919050565b60208082526034908201527f506169724c6f6769633a204572726f72203d3e2042616c616e636520696e737560408201527306666696369656e7420666f7220546f6b656e20360641b606082015260800190565b600060208284031215611a7f57600080fd5b815180151581146112e457600080fd5b6020808252602c908201527f506169724c6f6769633a204572726f72203d3e204c697175696469747920616460408201526b64656420746f6f206c65737360a01b606082015260800190565b818103818111156112355761123561189a565b60208082526031908201527f506169724c6f6769633a204572726f72203d3e204c69717569646974792064696040820152700cccccae4cadcc6ca40e8dede40daeac6d607b1b606082015260800190565b80820281158282048414176112355761123561189a565b600082611b7357634e487b7160e01b600052601260045260246000fd5b500490565b634e487b7160e01b600052600160045260246000fd5b808201808211156112355761123561189a565b600060018201611bb357611bb361189a565b506001019056fea26469706673582212206d9557987b95048e184d2632c6f7b0e1234fa8f2880d901e22e20da2f5e3273164736f6c63430008130033","opcodes":"PUSH1 0x80 PUSH1 0x40 MSTORE CALLVALUE DUP1 ISZERO PUSH3 0x11 JUMPI PUSH1 0x0 DUP1 REVERT JUMPDEST POP PUSH1 0x40 MLOAD PUSH3 0x1CDE CODESIZE SUB DUP1 PUSH3 0x1CDE DUP4 CODECOPY DUP2 ADD PUSH1 0x40 DUP2 SWAP1 MSTORE PUSH3 0x34 SWAP2 PUSH3 0x94 JUMP JUMPDEST PUSH1 0x0 DUP1 SLOAD PUSH1 0x1 PUSH1 0x1 PUSH1 0xA0 SHL SUB SWAP5 DUP6 AND PUSH1 0x1 PUSH1 0x1 PUSH1 0xA0 SHL SUB NOT SWAP2 DUP3 AND OR SWAP1 SWAP2 SSTORE PUSH1 0x1 DUP1 SLOAD SWAP4 DUP6 AND SWAP4 DUP3 AND SWAP4 SWAP1 SWAP4 OR SWAP1 SWAP3 SSTORE PUSH1 0x2 DUP1 SLOAD SWAP2 SWAP1 SWAP4 AND SWAP2 AND OR SWAP1 SSTORE PUSH3 0xDE JUMP JUMPDEST DUP1 MLOAD PUSH1 0x1 PUSH1 0x1 PUSH1 0xA0 SHL SUB DUP2 AND DUP2 EQ PUSH3 0x8F JUMPI PUSH1 0x0 DUP1 REVERT JUMPDEST SWAP2 SWAP1 POP JUMP JUMPDEST PUSH1 0x0 DUP1 PUSH1 0x0 PUSH1 0x60 DUP5 DUP7 SUB SLT ISZERO PUSH3 0xAA JUMPI PUSH1 0x0 DUP1 REVERT JUMPDEST PUSH3 0xB5 DUP5 PUSH3 0x77 JUMP JUMPDEST SWAP3 POP PUSH3 0xC5 PUSH1 0x20 DUP6 ADD PUSH3 0x77 JUMP JUMPDEST SWAP2 POP PUSH3 0xD5 PUSH1 0x40 DUP6 ADD PUSH3 0x77 JUMP JUMPDEST SWAP1 POP SWAP3 POP SWAP3 POP SWAP3 JUMP JUMPDEST PUSH2 0x1BF0 DUP1 PUSH3 0xEE PUSH1 0x0 CODECOPY PUSH1 0x0 RETURN INVALID PUSH1 0x80 PUSH1 0x40 MSTORE CALLVALUE DUP1 ISZERO PUSH2 0x10 JUMPI PUSH1 0x0 DUP1 REVERT JUMPDEST POP PUSH1 0x4 CALLDATASIZE LT PUSH2 0x137 JUMPI PUSH1 0x0 CALLDATALOAD PUSH1 0xE0 SHR DUP1 PUSH4 0x717DAC88 GT PUSH2 0xB8 JUMPI DUP1 PUSH4 0x9B190D18 GT PUSH2 0x7C JUMPI DUP1 PUSH4 0x9B190D18 EQ PUSH2 0x279 JUMPI DUP1 PUSH4 0x9F65E6A8 EQ PUSH2 0x28C JUMPI DUP1 PUSH4 0xB237F7D4 EQ PUSH2 0x29F JUMPI DUP1 PUSH4 0xB33C2F81 EQ PUSH2 0x2B2 JUMPI DUP1 PUSH4 0xB4D897DD EQ PUSH2 0x2CD JUMPI DUP1 PUSH4 0xF2F4EB26 EQ PUSH2 0x2E8 JUMPI PUSH1 0x0 DUP1 REVERT JUMPDEST DUP1 PUSH4 0x717DAC88 EQ PUSH2 0x230 JUMPI DUP1 PUSH4 0x9056AFB1 EQ PUSH2 0x243 JUMPI DUP1 PUSH4 0x90DC67E6 EQ PUSH2 0x256 JUMPI DUP1 PUSH4 0x96212916 EQ PUSH2 0x25E JUMPI DUP1 PUSH4 0x99215EEF EQ PUSH2 0x271 JUMPI PUSH1 0x0 DUP1 REVERT JUMPDEST DUP1 PUSH4 0x44C133E2 GT PUSH2 0xFF JUMPI DUP1 PUSH4 0x44C133E2 EQ PUSH2 0x19A JUMPI DUP1 PUSH4 0x44CC6549 EQ PUSH2 0x1BA JUMPI DUP1 PUSH4 0x48349D50 EQ PUSH2 0x1CD JUMPI DUP1 PUSH4 0x4EA5EFEF EQ PUSH2 0x1E2 JUMPI DUP1 PUSH4 0x6D0800B1 EQ PUSH2 0x205 JUMPI PUSH1 0x0 DUP1 REVERT JUMPDEST DUP1 PUSH4 0xD293D3B EQ PUSH2 0x13C JUMPI DUP1 PUSH4 0x1EAE0529 EQ PUSH2 0x158 JUMPI DUP1 PUSH4 0x29112524 EQ PUSH2 0x16B JUMPI DUP1 PUSH4 0x3827EBAA EQ PUSH2 0x17E JUMPI DUP1 PUSH4 0x4172AEE1 EQ PUSH2 0x187 JUMPI JUMPDEST PUSH1 0x0 DUP1 REVERT JUMPDEST PUSH2 0x145 PUSH1 0x6 SLOAD DUP2 JUMP JUMPDEST PUSH1 0x40 MLOAD SWAP1 DUP2 MSTORE PUSH1 0x20 ADD JUMPDEST PUSH1 0x40 MLOAD DUP1 SWAP2 SUB SWAP1 RETURN JUMPDEST PUSH2 0x145 PUSH2 0x166 CALLDATASIZE PUSH1 0x4 PUSH2 0x16F4 JUMP JUMPDEST PUSH2 0x2FB JUMP JUMPDEST PUSH2 0x145 PUSH2 0x179 CALLDATASIZE PUSH1 0x4 PUSH2 0x1724 JUMP JUMPDEST PUSH2 0x365 JUMP JUMPDEST PUSH2 0x145 PUSH1 0x7 SLOAD DUP2 JUMP JUMPDEST PUSH2 0x145 PUSH2 0x195 CALLDATASIZE PUSH1 0x4 PUSH2 0x173F JUMP JUMPDEST PUSH2 0x388 JUMP JUMPDEST PUSH2 0x1AD PUSH2 0x1A8 CALLDATASIZE PUSH1 0x4 PUSH2 0x1769 JUMP JUMPDEST PUSH2 0x3AD JUMP JUMPDEST PUSH1 0x40 MLOAD PUSH2 0x14F SWAP2 SWAP1 PUSH2 0x17C7 JUMP JUMPDEST PUSH2 0x145 PUSH2 0x1C8 CALLDATASIZE PUSH1 0x4 PUSH2 0x16F4 JUMP JUMPDEST PUSH2 0x7B0 JUMP JUMPDEST PUSH2 0x1D5 PUSH2 0x81A JUMP JUMPDEST PUSH1 0x40 MLOAD PUSH2 0x14F SWAP2 SWAP1 PUSH2 0x17F8 JUMP JUMPDEST PUSH2 0x1F5 PUSH2 0x1F0 CALLDATASIZE PUSH1 0x4 PUSH2 0x1845 JUMP JUMPDEST PUSH2 0x87C JUMP JUMPDEST PUSH1 0x40 MLOAD SWAP1 ISZERO ISZERO DUP2 MSTORE PUSH1 0x20 ADD PUSH2 0x14F JUMP JUMPDEST PUSH1 0x0 SLOAD PUSH2 0x218 SWAP1 PUSH1 0x1 PUSH1 0x1 PUSH1 0xA0 SHL SUB AND DUP2 JUMP JUMPDEST PUSH1 0x40 MLOAD PUSH1 0x1 PUSH1 0x1 PUSH1 0xA0 SHL SUB SWAP1 SWAP2 AND DUP2 MSTORE PUSH1 0x20 ADD PUSH2 0x14F JUMP JUMPDEST PUSH2 0x1F5 PUSH2 0x23E CALLDATASIZE PUSH1 0x4 PUSH2 0x1724 JUMP JUMPDEST PUSH2 0xE18 JUMP JUMPDEST PUSH1 0x1 SLOAD PUSH2 0x218 SWAP1 PUSH1 0x1 PUSH1 0x1 PUSH1 0xA0 SHL SUB AND DUP2 JUMP JUMPDEST PUSH1 0x7 SLOAD PUSH2 0x145 JUMP JUMPDEST PUSH2 0x218 PUSH2 0x26C CALLDATASIZE PUSH1 0x4 PUSH2 0x16F4 JUMP JUMPDEST PUSH2 0xEDE JUMP JUMPDEST PUSH1 0x6 SLOAD PUSH2 0x145 JUMP JUMPDEST PUSH1 0x3 SLOAD PUSH2 0x218 SWAP1 PUSH1 0x1 PUSH1 0x1 PUSH1 0xA0 SHL SUB AND DUP2 JUMP JUMPDEST PUSH2 0x145 PUSH2 0x29A CALLDATASIZE PUSH1 0x4 PUSH2 0x1724 JUMP JUMPDEST PUSH2 0xF08 JUMP JUMPDEST PUSH2 0x1F5 PUSH2 0x2AD CALLDATASIZE PUSH1 0x4 PUSH2 0x1724 JUMP JUMPDEST PUSH2 0xF27 JUMP JUMPDEST PUSH2 0x218 PUSH20 0x5FBDB2315678AFECB367F032D93F642F64180AA3 DUP2 JUMP JUMPDEST PUSH2 0x218 PUSH20 0xE7F1725E7734CE288F8367E1BB143E90BB3F0512 DUP2 JUMP JUMPDEST PUSH1 0x2 SLOAD PUSH2 0x218 SWAP1 PUSH1 0x1 PUSH1 0x1 PUSH1 0xA0 SHL SUB AND DUP2 JUMP JUMPDEST PUSH1 0x6 SLOAD PUSH1 0x0 SWAP1 DUP2 PUSH2 0x35D PUSH2 0x7CA PUSH2 0x357 PUSH2 0x317 DUP6 PUSH2 0x7CD PUSH2 0x11FF JUMP JUMPDEST PUSH2 0x351 PUSH2 0x34C PUSH2 0x334 PUSH3 0x3CDA20 PUSH2 0x32E DUP11 DUP14 PUSH2 0x11FF JUMP JUMPDEST SWAP1 PUSH2 0x11FF JUMP JUMPDEST PUSH2 0x346 PUSH3 0x3CDA29 PUSH2 0x32E PUSH1 0x2 DUP13 PUSH2 0x1994 JUMP JUMPDEST SWAP1 PUSH2 0x123B JUMP JUMPDEST PUSH2 0x1259 JUMP JUMPDEST SWAP1 PUSH2 0x12C8 JUMP JUMPDEST SWAP1 PUSH2 0x12EB JUMP JUMPDEST SWAP5 SWAP4 POP POP POP POP JUMP JUMPDEST PUSH1 0x1 PUSH1 0x1 PUSH1 0xA0 SHL SUB DUP2 AND PUSH1 0x0 SWAP1 DUP2 MSTORE PUSH1 0x4 PUSH1 0x20 MSTORE PUSH1 0x40 DUP2 KECCAK256 PUSH1 0x2 JUMPDEST ADD SLOAD SWAP3 SWAP2 POP POP JUMP JUMPDEST PUSH1 0x4 PUSH1 0x20 MSTORE DUP2 PUSH1 0x0 MSTORE PUSH1 0x40 PUSH1 0x0 KECCAK256 DUP2 PUSH1 0x4 DUP2 LT PUSH2 0x3A4 JUMPI PUSH1 0x0 DUP1 REVERT JUMPDEST ADD SLOAD SWAP2 POP DUP3 SWAP1 POP JUMP JUMPDEST PUSH2 0x3B5 PUSH2 0x16D6 JUMP JUMPDEST PUSH1 0x2 SLOAD PUSH1 0x1 PUSH1 0x1 PUSH1 0xA0 SHL SUB AND CALLER EQ PUSH2 0x3E8 JUMPI PUSH1 0x40 MLOAD PUSH3 0x461BCD PUSH1 0xE5 SHL DUP2 MSTORE PUSH1 0x4 ADD PUSH2 0x3DF SWAP1 PUSH2 0x19B9 JUMP JUMPDEST PUSH1 0x40 MLOAD DUP1 SWAP2 SUB SWAP1 REVERT JUMPDEST PUSH1 0x1 PUSH1 0x1 PUSH1 0xA0 SHL SUB DUP4 AND PUSH2 0x464 JUMPI PUSH1 0x40 MLOAD PUSH3 0x461BCD PUSH1 0xE5 SHL DUP2 MSTORE PUSH1 0x20 PUSH1 0x4 DUP3 ADD MSTORE PUSH1 0x3D PUSH1 0x24 DUP3 ADD MSTORE PUSH32 0x506169724C6F6769633A204572726F72203D3E205265636569766572206F6620 PUSH1 0x44 DUP3 ADD MSTORE PUSH32 0x746F6B656E7320616464726573732063616E6E6F74206265207A65726F000000 PUSH1 0x64 DUP3 ADD MSTORE PUSH1 0x84 ADD PUSH2 0x3DF JUMP JUMPDEST PUSH1 0x0 PUSH2 0x46F DUP6 PUSH2 0x2FB JUMP JUMPDEST PUSH1 0x40 MLOAD PUSH4 0x70A08231 PUSH1 0xE0 SHL DUP2 MSTORE PUSH1 0x1 PUSH1 0x1 PUSH1 0xA0 SHL SUB DUP6 DUP2 AND PUSH1 0x4 DUP4 ADD MSTORE SWAP2 SWAP3 POP DUP3 SWAP2 DUP10 AND SWAP1 PUSH4 0x70A08231 SWAP1 PUSH1 0x24 ADD PUSH1 0x20 PUSH1 0x40 MLOAD DUP1 DUP4 SUB DUP2 DUP7 GAS STATICCALL ISZERO DUP1 ISZERO PUSH2 0x4BA JUMPI RETURNDATASIZE PUSH1 0x0 DUP1 RETURNDATACOPY RETURNDATASIZE PUSH1 0x0 REVERT JUMPDEST POP POP POP POP PUSH1 0x40 MLOAD RETURNDATASIZE PUSH1 0x1F NOT PUSH1 0x1F DUP3 ADD AND DUP3 ADD DUP1 PUSH1 0x40 MSTORE POP DUP2 ADD SWAP1 PUSH2 0x4DE SWAP2 SWAP1 PUSH2 0x1A00 JUMP JUMPDEST LT ISZERO PUSH2 0x4FC JUMPI PUSH1 0x40 MLOAD PUSH3 0x461BCD PUSH1 0xE5 SHL DUP2 MSTORE PUSH1 0x4 ADD PUSH2 0x3DF SWAP1 PUSH2 0x1A19 JUMP JUMPDEST PUSH1 0x0 PUSH2 0x507 DUP3 PUSH2 0x7B0 JUMP JUMPDEST SWAP1 POP DUP1 PUSH1 0x7 SLOAD GT PUSH2 0x579 JUMPI PUSH1 0x40 MLOAD PUSH3 0x461BCD PUSH1 0xE5 SHL DUP2 MSTORE PUSH1 0x20 PUSH1 0x4 DUP3 ADD MSTORE PUSH1 0x36 PUSH1 0x24 DUP3 ADD MSTORE PUSH32 0x506169724C6F6769633A204572726F72203D3E20526573657276657320746F6F PUSH1 0x44 DUP3 ADD MSTORE PUSH22 0x81CDB585B1B08199BDC881D1A1A5CC8185B5BDD5B9D PUSH1 0x52 SHL PUSH1 0x64 DUP3 ADD MSTORE PUSH1 0x84 ADD PUSH2 0x3DF JUMP JUMPDEST PUSH1 0x40 MLOAD PUSH4 0x23B872DD PUSH1 0xE0 SHL DUP2 MSTORE PUSH1 0x1 PUSH1 0x1 PUSH1 0xA0 SHL SUB DUP6 DUP2 AND PUSH1 0x4 DUP4 ADD MSTORE ADDRESS PUSH1 0x24 DUP4 ADD MSTORE PUSH1 0x44 DUP3 ADD DUP9 SWAP1 MSTORE PUSH1 0x0 SWAP2 SWAP1 DUP11 AND SWAP1 PUSH4 0x23B872DD SWAP1 PUSH1 0x64 ADD PUSH1 0x20 PUSH1 0x40 MLOAD DUP1 DUP4 SUB DUP2 PUSH1 0x0 DUP8 GAS CALL ISZERO DUP1 ISZERO PUSH2 0x5D2 JUMPI RETURNDATASIZE PUSH1 0x0 DUP1 RETURNDATACOPY RETURNDATASIZE PUSH1 0x0 REVERT JUMPDEST POP POP POP POP PUSH1 0x40 MLOAD RETURNDATASIZE PUSH1 0x1F NOT PUSH1 0x1F DUP3 ADD AND DUP3 ADD DUP1 PUSH1 0x40 MSTORE POP DUP2 ADD SWAP1 PUSH2 0x5F6 SWAP2 SWAP1 PUSH2 0x1A6D JUMP JUMPDEST SWAP1 POP DUP1 PUSH2 0x659 JUMPI PUSH1 0x40 MLOAD PUSH3 0x461BCD PUSH1 0xE5 SHL DUP2 MSTORE PUSH1 0x20 PUSH1 0x4 DUP3 ADD MSTORE PUSH1 0x2B PUSH1 0x24 DUP3 ADD MSTORE PUSH32 0x506169724C6F6769633A204572726F72203D3E2053776170206661696C656420 PUSH1 0x44 DUP3 ADD MSTORE PUSH11 0x666F7220546F6B656E203 PUSH1 0xAC SHL PUSH1 0x64 DUP3 ADD MSTORE PUSH1 0x84 ADD PUSH2 0x3DF JUMP JUMPDEST PUSH1 0x40 MLOAD PUSH4 0xA9059CBB PUSH1 0xE0 SHL DUP2 MSTORE PUSH1 0x1 PUSH1 0x1 PUSH1 0xA0 SHL SUB DUP8 DUP2 AND PUSH1 0x4 DUP4 ADD MSTORE PUSH1 0x24 DUP3 ADD DUP5 SWAP1 MSTORE DUP10 AND SWAP1 PUSH4 0xA9059CBB SWAP1 PUSH1 0x44 ADD PUSH1 0x20 PUSH1 0x40 MLOAD DUP1 DUP4 SUB DUP2 PUSH1 0x0 DUP8 GAS CALL ISZERO DUP1 ISZERO PUSH2 0x6A8 JUMPI RETURNDATASIZE PUSH1 0x0 DUP1 RETURNDATACOPY RETURNDATASIZE PUSH1 0x0 REVERT JUMPDEST POP POP POP POP PUSH1 0x40 MLOAD RETURNDATASIZE PUSH1 0x1F NOT PUSH1 0x1F DUP3 ADD AND DUP3 ADD DUP1 PUSH1 0x40 MSTORE POP DUP2 ADD SWAP1 PUSH2 0x6CC SWAP2 SWAP1 PUSH2 0x1A6D JUMP JUMPDEST SWAP1 POP DUP1 PUSH2 0x72F JUMPI PUSH1 0x40 MLOAD PUSH3 0x461BCD PUSH1 0xE5 SHL DUP2 MSTORE PUSH1 0x20 PUSH1 0x4 DUP3 ADD MSTORE PUSH1 0x2B PUSH1 0x24 DUP3 ADD MSTORE PUSH32 0x506169724C6F6769633A204572726F72203D3E2053776170206661696C656420 PUSH1 0x44 DUP3 ADD MSTORE PUSH11 0x666F7220546F6B656E2031 PUSH1 0xA8 SHL PUSH1 0x64 DUP3 ADD MSTORE PUSH1 0x84 ADD PUSH2 0x3DF JUMP JUMPDEST PUSH1 0x0 SLOAD PUSH1 0x1 PUSH1 0x1 PUSH1 0xA0 SHL SUB SWAP1 DUP2 AND SWAP1 DUP11 AND SUB PUSH2 0x76A JUMPI PUSH1 0x6 SLOAD PUSH2 0x752 SWAP1 DUP9 PUSH2 0x123B JUMP JUMPDEST PUSH1 0x6 SSTORE PUSH1 0x7 SLOAD PUSH2 0x762 SWAP1 DUP4 PUSH2 0x12C8 JUMP JUMPDEST PUSH1 0x7 SSTORE PUSH2 0x78B JUMP JUMPDEST PUSH1 0x7 SLOAD PUSH2 0x777 SWAP1 DUP9 PUSH2 0x123B JUMP JUMPDEST PUSH1 0x7 SSTORE PUSH1 0x6 SLOAD PUSH2 0x787 SWAP1 DUP4 PUSH2 0x12C8 JUMP JUMPDEST PUSH1 0x6 SSTORE JUMPDEST PUSH2 0x793 PUSH2 0x12F7 JUMP JUMPDEST POP PUSH1 0x40 DUP1 MLOAD DUP1 DUP3 ADD SWAP1 SWAP2 MSTORE SWAP2 DUP3 MSTORE PUSH1 0x20 DUP3 ADD MSTORE SWAP7 SWAP6 POP POP POP POP POP POP JUMP JUMPDEST PUSH1 0x7 SLOAD PUSH1 0x6 SLOAD PUSH1 0x0 SWAP2 SWAP1 DUP3 PUSH2 0x7DB PUSH2 0x3E8 PUSH2 0x357 PUSH2 0x3E5 PUSH2 0x32E PUSH8 0xDE0B6B3A7640000 DUP4 DUP10 DUP13 PUSH2 0x11FF JUMP JUMPDEST SWAP1 POP PUSH1 0x0 PUSH2 0x7F5 DUP4 PUSH2 0x346 PUSH2 0x3E8 PUSH2 0x357 DUP11 PUSH2 0x3E5 PUSH2 0x11FF JUMP JUMPDEST SWAP1 POP PUSH1 0x0 PUSH2 0x80F DUP3 PUSH2 0x357 DUP6 PUSH8 0xDE0B6B3A7640000 PUSH2 0x11FF JUMP JUMPDEST SWAP8 SWAP7 POP POP POP POP POP POP POP JUMP JUMPDEST PUSH1 0x60 PUSH1 0x5 DUP1 SLOAD DUP1 PUSH1 0x20 MUL PUSH1 0x20 ADD PUSH1 0x40 MLOAD SWAP1 DUP2 ADD PUSH1 0x40 MSTORE DUP1 SWAP3 SWAP2 SWAP1 DUP2 DUP2 MSTORE PUSH1 0x20 ADD DUP3 DUP1 SLOAD DUP1 ISZERO PUSH2 0x872 JUMPI PUSH1 0x20 MUL DUP3 ADD SWAP2 SWAP1 PUSH1 0x0 MSTORE PUSH1 0x20 PUSH1 0x0 KECCAK256 SWAP1 JUMPDEST DUP2 SLOAD PUSH1 0x1 PUSH1 0x1 PUSH1 0xA0 SHL SUB AND DUP2 MSTORE PUSH1 0x1 SWAP1 SWAP2 ADD SWAP1 PUSH1 0x20 ADD DUP1 DUP4 GT PUSH2 0x854 JUMPI JUMPDEST POP POP POP POP POP SWAP1 POP SWAP1 JUMP JUMPDEST PUSH1 0x2 SLOAD PUSH1 0x0 SWAP1 PUSH1 0x1 PUSH1 0x1 PUSH1 0xA0 SHL SUB AND CALLER EQ PUSH2 0x8A9 JUMPI PUSH1 0x40 MLOAD PUSH3 0x461BCD PUSH1 0xE5 SHL DUP2 MSTORE PUSH1 0x4 ADD PUSH2 0x3DF SWAP1 PUSH2 0x19B9 JUMP JUMPDEST DUP3 DUP3 PUSH1 0x0 DUP3 GT DUP1 ISZERO PUSH2 0x8BB JUMPI POP PUSH1 0x0 DUP2 GT JUMPDEST PUSH2 0x922 JUMPI PUSH1 0x40 MLOAD PUSH3 0x461BCD PUSH1 0xE5 SHL DUP2 MSTORE PUSH1 0x20 PUSH1 0x4 DUP3 ADD MSTORE PUSH1 0x32 PUSH1 0x24 DUP3 ADD MSTORE PUSH32 0x506169724C6F6769633A204572726F72203D3E205A65726F206C697175696469 PUSH1 0x44 DUP3 ADD MSTORE PUSH18 0x1D1E4818D85B9B9BDD081899481859191959 PUSH1 0x72 SHL PUSH1 0x64 DUP3 ADD MSTORE PUSH1 0x84 ADD PUSH2 0x3DF JUMP JUMPDEST DUP5 DUP5 DUP1 DUP3 LT PUSH2 0x983 JUMPI PUSH2 0x3E8 DUP2 LT ISZERO PUSH2 0x94D JUMPI PUSH1 0x40 MLOAD PUSH3 0x461BCD PUSH1 0xE5 SHL DUP2 MSTORE PUSH1 0x4 ADD PUSH2 0x3DF SWAP1 PUSH2 0x1A8F JUMP JUMPDEST PUSH8 0xDE0B6B3A7640000 PUSH2 0x960 DUP3 DUP5 PUSH2 0x1ADB JUMP JUMPDEST GT ISZERO PUSH2 0x97E JUMPI PUSH1 0x40 MLOAD PUSH3 0x461BCD PUSH1 0xE5 SHL DUP2 MSTORE PUSH1 0x4 ADD PUSH2 0x3DF SWAP1 PUSH2 0x1AEE JUMP JUMPDEST PUSH2 0x9D6 JUMP JUMPDEST PUSH2 0x3E8 DUP3 LT ISZERO PUSH2 0x9A5 JUMPI PUSH1 0x40 MLOAD PUSH3 0x461BCD PUSH1 0xE5 SHL DUP2 MSTORE PUSH1 0x4 ADD PUSH2 0x3DF SWAP1 PUSH2 0x1A8F JUMP JUMPDEST PUSH8 0xDE0B6B3A7640000 PUSH2 0x9B8 DUP4 DUP4 PUSH2 0x1ADB JUMP JUMPDEST GT ISZERO PUSH2 0x9D6 JUMPI PUSH1 0x40 MLOAD PUSH3 0x461BCD PUSH1 0xE5 SHL DUP2 MSTORE PUSH1 0x4 ADD PUSH2 0x3DF SWAP1 PUSH2 0x1AEE JUMP JUMPDEST PUSH1 0x6 SLOAD PUSH1 0x7 SLOAD PUSH1 0x0 DUP1 SLOAD PUSH1 0x1 PUSH1 0x1 PUSH1 0xA0 SHL SUB DUP14 DUP2 AND SWAP2 AND EQ PUSH2 0xA18 JUMPI POP POP PUSH1 0x1 DUP1 SLOAD PUSH1 0x0 SLOAD PUSH1 0x7 SLOAD PUSH1 0x6 SLOAD PUSH1 0x1 PUSH1 0x1 PUSH1 0xA0 SHL SUB SWAP4 DUP5 AND SWAP15 POP SWAP3 SWAP1 SWAP2 AND SWAP12 POP SWAP3 POP SWAP1 JUMPDEST DUP3 ISZERO PUSH2 0xA3F JUMPI PUSH2 0xA2C DUP3 PUSH2 0x357 DUP6 DUP13 PUSH2 0x11FF JUMP JUMPDEST SWAP10 POP PUSH2 0xA3C DUP4 PUSH2 0x357 DUP5 DUP14 PUSH2 0x11FF JUMP JUMPDEST SWAP9 POP JUMPDEST PUSH1 0x40 MLOAD PUSH4 0x70A08231 PUSH1 0xE0 SHL DUP2 MSTORE PUSH1 0x1 PUSH1 0x1 PUSH1 0xA0 SHL SUB DUP15 DUP2 AND PUSH1 0x4 DUP4 ADD MSTORE DUP12 SWAP2 SWAP1 DUP15 AND SWAP1 PUSH4 0x70A08231 SWAP1 PUSH1 0x24 ADD PUSH1 0x20 PUSH1 0x40 MLOAD DUP1 DUP4 SUB DUP2 DUP7 GAS STATICCALL ISZERO DUP1 ISZERO PUSH2 0xA88 JUMPI RETURNDATASIZE PUSH1 0x0 DUP1 RETURNDATACOPY RETURNDATASIZE PUSH1 0x0 REVERT JUMPDEST POP POP POP POP PUSH1 0x40 MLOAD RETURNDATASIZE PUSH1 0x1F NOT PUSH1 0x1F DUP3 ADD AND DUP3 ADD DUP1 PUSH1 0x40 MSTORE POP DUP2 ADD SWAP1 PUSH2 0xAAC SWAP2 SWAP1 PUSH2 0x1A00 JUMP JUMPDEST LT ISZERO PUSH2 0xACA JUMPI PUSH1 0x40 MLOAD PUSH3 0x461BCD PUSH1 0xE5 SHL DUP2 MSTORE PUSH1 0x4 ADD PUSH2 0x3DF SWAP1 PUSH2 0x1A19 JUMP JUMPDEST PUSH1 0x40 MLOAD PUSH4 0x70A08231 PUSH1 0xE0 SHL DUP2 MSTORE PUSH1 0x1 PUSH1 0x1 PUSH1 0xA0 SHL SUB DUP15 DUP2 AND PUSH1 0x4 DUP4 ADD MSTORE DUP11 SWAP2 SWAP1 DUP14 AND SWAP1 PUSH4 0x70A08231 SWAP1 PUSH1 0x24 ADD PUSH1 0x20 PUSH1 0x40 MLOAD DUP1 DUP4 SUB DUP2 DUP7 GAS STATICCALL ISZERO DUP1 ISZERO PUSH2 0xB13 JUMPI RETURNDATASIZE PUSH1 0x0 DUP1 RETURNDATACOPY RETURNDATASIZE PUSH1 0x0 REVERT JUMPDEST POP POP POP POP PUSH1 0x40 MLOAD RETURNDATASIZE PUSH1 0x1F NOT PUSH1 0x1F DUP3 ADD AND DUP3 ADD DUP1 PUSH1 0x40 MSTORE POP DUP2 ADD SWAP1 PUSH2 0xB37 SWAP2 SWAP1 PUSH2 0x1A00 JUMP JUMPDEST LT ISZERO PUSH2 0xBA2 JUMPI PUSH1 0x40 MLOAD PUSH3 0x461BCD PUSH1 0xE5 SHL DUP2 MSTORE PUSH1 0x20 PUSH1 0x4 DUP3 ADD MSTORE PUSH1 0x34 PUSH1 0x24 DUP3 ADD MSTORE PUSH32 0x506169724C6F6769633A204572726F72203D3E2042616C616E636520696E7375 PUSH1 0x44 DUP3 ADD MSTORE PUSH20 0x6666696369656E7420666F7220546F6B656E2031 PUSH1 0x60 SHL PUSH1 0x64 DUP3 ADD MSTORE PUSH1 0x84 ADD PUSH2 0x3DF JUMP JUMPDEST PUSH1 0x40 MLOAD PUSH4 0x23B872DD PUSH1 0xE0 SHL DUP2 MSTORE PUSH1 0x1 PUSH1 0x1 PUSH1 0xA0 SHL SUB DUP15 DUP2 AND PUSH1 0x4 DUP4 ADD MSTORE ADDRESS PUSH1 0x24 DUP4 ADD MSTORE PUSH1 0x44 DUP3 ADD DUP13 SWAP1 MSTORE PUSH1 0x0 SWAP2 SWAP1 DUP15 AND SWAP1 PUSH4 0x23B872DD SWAP1 PUSH1 0x64 ADD PUSH1 0x20 PUSH1 0x40 MLOAD DUP1 DUP4 SUB DUP2 PUSH1 0x0 DUP8 GAS CALL ISZERO DUP1 ISZERO PUSH2 0xBFB JUMPI RETURNDATASIZE PUSH1 0x0 DUP1 RETURNDATACOPY RETURNDATASIZE PUSH1 0x0 REVERT JUMPDEST POP POP POP POP PUSH1 0x40 MLOAD RETURNDATASIZE PUSH1 0x1F NOT PUSH1 0x1F DUP3 ADD AND DUP3 ADD DUP1 PUSH1 0x40 MSTORE POP DUP2 ADD SWAP1 PUSH2 0xC1F SWAP2 SWAP1 PUSH2 0x1A6D JUMP JUMPDEST SWAP1 POP DUP1 PUSH2 0xC86 JUMPI PUSH1 0x40 MLOAD PUSH3 0x461BCD PUSH1 0xE5 SHL DUP2 MSTORE PUSH1 0x20 PUSH1 0x4 DUP3 ADD MSTORE PUSH1 0x2F PUSH1 0x24 DUP3 ADD MSTORE PUSH32 0x506169724C6F6769633A204572726F72203D3E205472616E7366657220466169 PUSH1 0x44 DUP3 ADD MSTORE PUSH15 0x6C656420666F7220546F6B656E203 PUSH1 0x8C SHL PUSH1 0x64 DUP3 ADD MSTORE PUSH1 0x84 ADD PUSH2 0x3DF JUMP JUMPDEST PUSH1 0x40 MLOAD PUSH4 0x23B872DD PUSH1 0xE0 SHL DUP2 MSTORE PUSH1 0x1 PUSH1 0x1 PUSH1 0xA0 SHL SUB DUP16 DUP2 AND PUSH1 0x4 DUP4 ADD MSTORE ADDRESS PUSH1 0x24 DUP4 ADD MSTORE PUSH1 0x44 DUP3 ADD DUP13 SWAP1 MSTORE DUP14 AND SWAP1 PUSH4 0x23B872DD SWAP1 PUSH1 0x64 ADD PUSH1 0x20 PUSH1 0x40 MLOAD DUP1 DUP4 SUB DUP2 PUSH1 0x0 DUP8 GAS CALL ISZERO DUP1 ISZERO PUSH2 0xCDB JUMPI RETURNDATASIZE PUSH1 0x0 DUP1 RETURNDATACOPY RETURNDATASIZE PUSH1 0x0 REVERT JUMPDEST POP POP POP POP PUSH1 0x40 MLOAD RETURNDATASIZE PUSH1 0x1F NOT PUSH1 0x1F DUP3 ADD AND DUP3 ADD DUP1 PUSH1 0x40 MSTORE POP DUP2 ADD SWAP1 PUSH2 0xCFF SWAP2 SWAP1 PUSH2 0x1A6D JUMP JUMPDEST SWAP1 POP DUP1 PUSH2 0xD66 JUMPI PUSH1 0x40 MLOAD PUSH3 0x461BCD PUSH1 0xE5 SHL DUP2 MSTORE PUSH1 0x20 PUSH1 0x4 DUP3 ADD MSTORE PUSH1 0x2F PUSH1 0x24 DUP3 ADD MSTORE PUSH32 0x506169724C6F6769633A204572726F72203D3E205472616E7366657220466169 PUSH1 0x44 DUP3 ADD MSTORE PUSH15 0x6C656420666F7220546F6B656E2031 PUSH1 0x88 SHL PUSH1 0x64 DUP3 ADD MSTORE PUSH1 0x84 ADD PUSH2 0x3DF JUMP JUMPDEST PUSH1 0x5 DUP15 SWAP1 DUP1 PUSH1 0x1 DUP2 SLOAD ADD DUP1 DUP3 SSTORE DUP1 SWAP2 POP POP PUSH1 0x1 SWAP1 SUB SWAP1 PUSH1 0x0 MSTORE PUSH1 0x20 PUSH1 0x0 KECCAK256 ADD PUSH1 0x0 SWAP1 SWAP2 SWAP1 SWAP2 SWAP1 SWAP2 PUSH2 0x100 EXP DUP2 SLOAD DUP2 PUSH1 0x1 PUSH1 0x1 PUSH1 0xA0 SHL SUB MUL NOT AND SWAP1 DUP4 PUSH1 0x1 PUSH1 0x1 PUSH1 0xA0 SHL SUB AND MUL OR SWAP1 SSTORE POP PUSH2 0xDC2 DUP12 DUP6 PUSH2 0x123B SWAP1 SWAP2 SWAP1 PUSH4 0xFFFFFFFF AND JUMP JUMPDEST SWAP4 POP PUSH2 0xDCE DUP4 DUP12 PUSH2 0x123B JUMP JUMPDEST SWAP3 POP DUP2 ISZERO PUSH2 0xDE5 JUMPI PUSH1 0x6 DUP4 SWAP1 SSTORE PUSH1 0x7 DUP5 SWAP1 SSTORE PUSH2 0xDF0 JUMP JUMPDEST PUSH1 0x6 DUP5 SWAP1 SSTORE PUSH1 0x7 DUP4 SWAP1 SSTORE JUMPDEST PUSH2 0xDFC DUP15 DUP15 DUP14 DUP14 PUSH2 0x13C8 JUMP JUMPDEST PUSH2 0xE04 PUSH2 0x14BF JUMP JUMPDEST POP PUSH1 0x1 SWAP14 SWAP13 POP POP POP POP POP POP POP POP POP POP POP POP POP JUMP JUMPDEST PUSH1 0x2 SLOAD PUSH1 0x0 SWAP1 PUSH1 0x1 PUSH1 0x1 PUSH1 0xA0 SHL SUB AND CALLER EQ PUSH2 0xE45 JUMPI PUSH1 0x40 MLOAD PUSH3 0x461BCD PUSH1 0xE5 SHL DUP2 MSTORE PUSH1 0x4 ADD PUSH2 0x3DF SWAP1 PUSH2 0x19B9 JUMP JUMPDEST PUSH1 0x3 DUP1 SLOAD PUSH1 0x1 PUSH1 0x1 PUSH1 0xA0 SHL SUB NOT AND PUSH1 0x1 PUSH1 0x1 PUSH1 0xA0 SHL SUB DUP5 AND SWAP1 DUP2 OR SWAP1 SWAP2 SSTORE PUSH2 0xED5 JUMPI PUSH1 0x40 MLOAD PUSH3 0x461BCD PUSH1 0xE5 SHL DUP2 MSTORE PUSH1 0x20 PUSH1 0x4 DUP3 ADD MSTORE PUSH1 0x37 PUSH1 0x24 DUP3 ADD MSTORE PUSH32 0x506169724C6F6769633A204572726F72203D3E204661696C6564207768696C65 PUSH1 0x44 DUP3 ADD MSTORE PUSH32 0x2073657474696E67204C4F4749432F45544820706F6F6C000000000000000000 PUSH1 0x64 DUP3 ADD MSTORE PUSH1 0x84 ADD PUSH2 0x3DF JUMP JUMPDEST POP PUSH1 0x1 JUMPDEST SWAP2 SWAP1 POP JUMP JUMPDEST PUSH1 0x5 DUP2 DUP2 SLOAD DUP2 LT PUSH2 0xEEE JUMPI PUSH1 0x0 DUP1 REVERT JUMPDEST PUSH1 0x0 SWAP2 DUP3 MSTORE PUSH1 0x20 SWAP1 SWAP2 KECCAK256 ADD SLOAD PUSH1 0x1 PUSH1 0x1 PUSH1 0xA0 SHL SUB AND SWAP1 POP DUP2 JUMP JUMPDEST PUSH1 0x1 PUSH1 0x1 PUSH1 0xA0 SHL SUB DUP2 AND PUSH1 0x0 SWAP1 DUP2 MSTORE PUSH1 0x4 PUSH1 0x20 MSTORE PUSH1 0x40 DUP2 KECCAK256 PUSH1 0x3 PUSH2 0x380 JUMP JUMPDEST PUSH1 0x2 SLOAD PUSH1 0x0 SWAP1 PUSH1 0x1 PUSH1 0x1 PUSH1 0xA0 SHL SUB AND CALLER EQ PUSH2 0xF54 JUMPI PUSH1 0x40 MLOAD PUSH3 0x461BCD PUSH1 0xE5 SHL DUP2 MSTORE PUSH1 0x4 ADD PUSH2 0x3DF SWAP1 PUSH2 0x19B9 JUMP JUMPDEST PUSH1 0x6 SLOAD PUSH1 0x1 PUSH1 0x1 PUSH1 0xA0 SHL SUB DUP4 AND PUSH1 0x0 SWAP1 DUP2 MSTORE PUSH1 0x4 PUSH1 0x20 MSTORE PUSH1 0x40 DUP2 KECCAK256 SWAP1 SWAP2 PUSH2 0xF8E SWAP2 PUSH8 0xDE0B6B3A7640000 SWAP2 PUSH2 0x357 SWAP2 PUSH1 0x2 JUMPDEST ADD SLOAD SWAP1 PUSH2 0x11FF JUMP JUMPDEST PUSH1 0x7 SLOAD PUSH1 0x1 PUSH1 0x1 PUSH1 0xA0 SHL SUB DUP6 AND PUSH1 0x0 SWAP1 DUP2 MSTORE PUSH1 0x4 PUSH1 0x20 MSTORE PUSH1 0x40 DUP2 KECCAK256 SWAP3 SWAP4 POP SWAP2 PUSH2 0xFC7 SWAP2 PUSH8 0xDE0B6B3A7640000 SWAP2 PUSH2 0x357 SWAP2 SWAP1 PUSH1 0x3 PUSH2 0xF86 JUMP JUMPDEST PUSH1 0x0 DUP1 SLOAD PUSH1 0x40 MLOAD PUSH4 0xA9059CBB PUSH1 0xE0 SHL DUP2 MSTORE PUSH1 0x1 PUSH1 0x1 PUSH1 0xA0 SHL SUB DUP9 DUP2 AND PUSH1 0x4 DUP4 ADD MSTORE PUSH1 0x24 DUP3 ADD DUP8 SWAP1 MSTORE SWAP4 SWAP5 POP SWAP2 SWAP3 AND SWAP1 PUSH4 0xA9059CBB SWAP1 PUSH1 0x44 ADD PUSH1 0x20 PUSH1 0x40 MLOAD DUP1 DUP4 SUB DUP2 PUSH1 0x0 DUP8 GAS CALL ISZERO DUP1 ISZERO PUSH2 0x101E JUMPI RETURNDATASIZE PUSH1 0x0 DUP1 RETURNDATACOPY RETURNDATASIZE PUSH1 0x0 REVERT JUMPDEST POP POP POP POP PUSH1 0x40 MLOAD RETURNDATASIZE PUSH1 0x1F NOT PUSH1 0x1F DUP3 ADD AND DUP3 ADD DUP1 PUSH1 0x40 MSTORE POP DUP2 ADD SWAP1 PUSH2 0x1042 SWAP2 SWAP1 PUSH2 0x1A6D JUMP JUMPDEST SWAP1 POP DUP1 PUSH2 0x10A8 JUMPI PUSH1 0x40 MLOAD PUSH3 0x461BCD PUSH1 0xE5 SHL DUP2 MSTORE PUSH1 0x20 PUSH1 0x4 DUP3 ADD MSTORE PUSH1 0x2E PUSH1 0x24 DUP3 ADD MSTORE PUSH32 0x506169724C6F6769633A204572726F72203D3E204275726E696E67204661696C PUSH1 0x44 DUP3 ADD MSTORE PUSH14 0x656420666F7220546F6B656E203 PUSH1 0x94 SHL PUSH1 0x64 DUP3 ADD MSTORE PUSH1 0x84 ADD PUSH2 0x3DF JUMP JUMPDEST PUSH1 0x6 SLOAD PUSH2 0x10B5 SWAP1 DUP5 PUSH2 0x12C8 JUMP JUMPDEST PUSH1 0x6 SSTORE PUSH1 0x1 PUSH1 0x1 PUSH1 0xA0 SHL SUB DUP6 DUP2 AND PUSH1 0x0 DUP2 DUP2 MSTORE PUSH1 0x4 PUSH1 0x20 DUP2 SWAP1 MSTORE PUSH1 0x40 DUP1 DUP4 KECCAK256 DUP4 DUP2 SSTORE PUSH1 0x2 ADD SWAP3 SWAP1 SWAP3 SSTORE PUSH1 0x1 SLOAD SWAP2 MLOAD PUSH4 0xA9059CBB PUSH1 0xE0 SHL DUP2 MSTORE SWAP1 DUP2 ADD SWAP3 SWAP1 SWAP3 MSTORE PUSH1 0x24 DUP3 ADD DUP6 SWAP1 MSTORE SWAP1 SWAP2 AND SWAP1 PUSH4 0xA9059CBB SWAP1 PUSH1 0x44 ADD PUSH1 0x20 PUSH1 0x40 MLOAD DUP1 DUP4 SUB DUP2 PUSH1 0x0 DUP8 GAS CALL ISZERO DUP1 ISZERO PUSH2 0x1127 JUMPI RETURNDATASIZE PUSH1 0x0 DUP1 RETURNDATACOPY RETURNDATASIZE PUSH1 0x0 REVERT JUMPDEST POP POP POP POP PUSH1 0x40 MLOAD RETURNDATASIZE PUSH1 0x1F NOT PUSH1 0x1F DUP3 ADD AND DUP3 ADD DUP1 PUSH1 0x40 MSTORE POP DUP2 ADD SWAP1 PUSH2 0x114B SWAP2 SWAP1 PUSH2 0x1A6D JUMP JUMPDEST SWAP1 POP DUP1 PUSH2 0x11B1 JUMPI PUSH1 0x40 MLOAD PUSH3 0x461BCD PUSH1 0xE5 SHL DUP2 MSTORE PUSH1 0x20 PUSH1 0x4 DUP3 ADD MSTORE PUSH1 0x2E PUSH1 0x24 DUP3 ADD MSTORE PUSH32 0x506169724C6F6769633A204572726F72203D3E204275726E696E67204661696C PUSH1 0x44 DUP3 ADD MSTORE PUSH14 0x656420666F7220546F6B656E2031 PUSH1 0x90 SHL PUSH1 0x64 DUP3 ADD MSTORE PUSH1 0x84 ADD PUSH2 0x3DF JUMP JUMPDEST PUSH1 0x7 SLOAD PUSH2 0x11BE SWAP1 DUP4 PUSH2 0x12C8 JUMP JUMPDEST PUSH1 0x7 SSTORE PUSH1 0x1 PUSH1 0x1 PUSH1 0xA0 SHL SUB DUP6 AND PUSH1 0x0 SWAP1 DUP2 MSTORE PUSH1 0x4 PUSH1 0x20 MSTORE PUSH1 0x40 DUP2 KECCAK256 PUSH1 0x1 DUP2 ADD DUP3 SWAP1 SSTORE PUSH1 0x3 ADD SSTORE PUSH1 0x6 SLOAD ISZERO PUSH2 0x11F4 JUMPI PUSH2 0x11F4 PUSH2 0x1591 JUMP JUMPDEST POP PUSH1 0x1 SWAP5 SWAP4 POP POP POP POP JUMP JUMPDEST PUSH1 0x0 DUP3 PUSH1 0x0 SUB PUSH2 0x1211 JUMPI POP PUSH1 0x0 PUSH2 0x1235 JUMP JUMPDEST PUSH2 0x121B DUP3 DUP5 PUSH2 0x1B3F JUMP JUMPDEST SWAP1 POP DUP2 PUSH2 0x1228 DUP5 DUP4 PUSH2 0x1B56 JUMP JUMPDEST EQ PUSH2 0x1235 JUMPI PUSH2 0x1235 PUSH2 0x1B78 JUMP JUMPDEST SWAP3 SWAP2 POP POP JUMP JUMPDEST PUSH1 0x0 PUSH2 0x1247 DUP3 DUP5 PUSH2 0x1B8E JUMP JUMPDEST SWAP1 POP DUP3 DUP2 LT ISZERO PUSH2 0x1235 JUMPI PUSH2 0x1235 PUSH2 0x1B78 JUMP JUMPDEST PUSH1 0x0 PUSH1 0x3 DUP3 GT ISZERO PUSH2 0x12BA JUMPI POP DUP1 PUSH1 0x0 PUSH2 0x1273 PUSH1 0x2 DUP4 PUSH2 0x1B56 JUMP JUMPDEST PUSH2 0x127E SWAP1 PUSH1 0x1 PUSH2 0x1B8E JUMP JUMPDEST SWAP1 POP JUMPDEST DUP2 DUP2 LT ISZERO PUSH2 0x12B4 JUMPI SWAP1 POP DUP1 PUSH1 0x2 DUP2 PUSH2 0x1299 DUP2 DUP7 PUSH2 0x1B56 JUMP JUMPDEST PUSH2 0x12A3 SWAP2 SWAP1 PUSH2 0x1B8E JUMP JUMPDEST PUSH2 0x12AD SWAP2 SWAP1 PUSH2 0x1B56 JUMP JUMPDEST SWAP1 POP PUSH2 0x1281 JUMP JUMPDEST POP SWAP2 SWAP1 POP JUMP JUMPDEST DUP2 ISZERO PUSH2 0xED9 JUMPI POP PUSH1 0x1 SWAP2 SWAP1 POP JUMP JUMPDEST PUSH1 0x0 DUP3 DUP3 GT ISZERO PUSH2 0x12DA JUMPI PUSH2 0x12DA PUSH2 0x1B78 JUMP JUMPDEST PUSH2 0x12E4 DUP3 DUP5 PUSH2 0x1ADB JUMP JUMPDEST SWAP4 SWAP3 POP POP POP JUMP JUMPDEST PUSH1 0x0 PUSH2 0x12E4 DUP3 DUP5 PUSH2 0x1B56 JUMP JUMPDEST PUSH1 0x0 JUMPDEST PUSH1 0x5 SLOAD DUP2 LT ISZERO PUSH2 0x13C5 JUMPI PUSH1 0x0 PUSH1 0x5 DUP3 DUP2 SLOAD DUP2 LT PUSH2 0x1319 JUMPI PUSH2 0x1319 PUSH2 0x19A3 JUMP JUMPDEST PUSH1 0x0 SWAP2 DUP3 MSTORE PUSH1 0x20 DUP1 DUP4 KECCAK256 SWAP1 SWAP2 ADD SLOAD PUSH1 0x6 SLOAD PUSH1 0x1 PUSH1 0x1 PUSH1 0xA0 SHL SUB SWAP1 SWAP2 AND DUP1 DUP5 MSTORE PUSH1 0x4 SWAP1 SWAP3 MSTORE PUSH1 0x40 SWAP1 SWAP3 KECCAK256 SWAP1 SWAP3 POP PUSH2 0x135F SWAP2 PUSH8 0xDE0B6B3A7640000 SWAP2 PUSH2 0x357 SWAP2 SWAP1 PUSH1 0x2 PUSH2 0xF86 JUMP JUMPDEST PUSH1 0x1 PUSH1 0x1 PUSH1 0xA0 SHL SUB DUP3 AND PUSH1 0x0 SWAP1 DUP2 MSTORE PUSH1 0x4 PUSH1 0x20 MSTORE PUSH1 0x40 SWAP1 KECCAK256 SWAP1 DUP2 SSTORE PUSH1 0x7 SLOAD PUSH2 0x1396 SWAP2 PUSH8 0xDE0B6B3A7640000 SWAP2 PUSH2 0x357 SWAP2 PUSH1 0x3 PUSH2 0xF86 JUMP JUMPDEST PUSH1 0x1 PUSH1 0x1 PUSH1 0xA0 SHL SUB DUP3 AND PUSH1 0x0 SWAP1 DUP2 MSTORE PUSH1 0x4 PUSH1 0x20 MSTORE PUSH1 0x40 SWAP1 KECCAK256 PUSH1 0x1 ADD SSTORE POP DUP1 PUSH2 0x13BD DUP2 PUSH2 0x1BA1 JUMP JUMPDEST SWAP2 POP POP PUSH2 0x12FA JUMP JUMPDEST POP JUMP JUMPDEST PUSH1 0x0 SLOAD PUSH1 0x1 PUSH1 0x1 PUSH1 0xA0 SHL SUB SWAP1 DUP2 AND SWAP1 DUP5 AND SUB PUSH2 0x144F JUMPI PUSH1 0x1 PUSH1 0x1 PUSH1 0xA0 SHL SUB DUP5 AND PUSH1 0x0 SWAP1 DUP2 MSTORE PUSH1 0x4 PUSH1 0x20 MSTORE PUSH1 0x40 DUP2 KECCAK256 PUSH2 0x1406 SWAP2 DUP5 SWAP2 SWAP1 JUMPDEST ADD SLOAD SWAP1 PUSH2 0x123B JUMP JUMPDEST PUSH1 0x1 PUSH1 0x1 PUSH1 0xA0 SHL SUB DUP6 AND PUSH1 0x0 SWAP1 DUP2 MSTORE PUSH1 0x4 PUSH1 0x20 MSTORE PUSH1 0x40 SWAP1 KECCAK256 SWAP1 DUP2 SSTORE PUSH2 0x142E SWAP1 DUP3 SWAP1 PUSH1 0x1 PUSH2 0x13FE JUMP JUMPDEST PUSH1 0x1 PUSH1 0x1 PUSH1 0xA0 SHL SUB DUP6 AND PUSH1 0x0 SWAP1 DUP2 MSTORE PUSH1 0x4 PUSH1 0x20 MSTORE PUSH1 0x40 SWAP1 KECCAK256 PUSH1 0x1 ADD SSTORE PUSH2 0x14B9 JUMP JUMPDEST PUSH1 0x1 PUSH1 0x1 PUSH1 0xA0 SHL SUB DUP5 AND PUSH1 0x0 SWAP1 DUP2 MSTORE PUSH1 0x4 PUSH1 0x20 MSTORE PUSH1 0x40 SWAP1 KECCAK256 PUSH2 0x1474 SWAP1 DUP4 SWAP1 PUSH1 0x1 PUSH2 0x13FE JUMP JUMPDEST PUSH1 0x1 PUSH1 0x1 PUSH1 0xA0 SHL SUB DUP6 AND PUSH1 0x0 SWAP1 DUP2 MSTORE PUSH1 0x4 PUSH1 0x20 MSTORE PUSH1 0x40 DUP2 KECCAK256 PUSH1 0x1 DUP2 ADD SWAP3 SWAP1 SWAP3 SSTORE PUSH2 0x149F SWAP2 DUP4 SWAP2 PUSH2 0x13FE JUMP JUMPDEST PUSH1 0x1 PUSH1 0x1 PUSH1 0xA0 SHL SUB DUP6 AND PUSH1 0x0 SWAP1 DUP2 MSTORE PUSH1 0x4 PUSH1 0x20 MSTORE PUSH1 0x40 SWAP1 KECCAK256 SSTORE JUMPDEST POP POP POP POP JUMP JUMPDEST PUSH1 0x0 JUMPDEST PUSH1 0x5 SLOAD DUP2 LT ISZERO PUSH2 0x13C5 JUMPI PUSH1 0x0 PUSH1 0x5 DUP3 DUP2 SLOAD DUP2 LT PUSH2 0x14E1 JUMPI PUSH2 0x14E1 PUSH2 0x19A3 JUMP JUMPDEST PUSH1 0x0 SWAP2 DUP3 MSTORE PUSH1 0x20 DUP1 DUP4 KECCAK256 SWAP1 SWAP2 ADD SLOAD PUSH1 0x6 SLOAD PUSH1 0x1 PUSH1 0x1 PUSH1 0xA0 SHL SUB SWAP1 SWAP2 AND DUP1 DUP5 MSTORE PUSH1 0x4 SWAP1 SWAP3 MSTORE PUSH1 0x40 DUP4 KECCAK256 SWAP2 SWAP4 POP PUSH2 0x1526 SWAP3 SWAP1 SWAP2 PUSH2 0x357 SWAP2 PUSH8 0xDE0B6B3A7640000 SWAP2 SWAP1 PUSH2 0xF86 JUMP JUMPDEST PUSH1 0x1 PUSH1 0x1 PUSH1 0xA0 SHL SUB DUP3 AND PUSH1 0x0 SWAP1 DUP2 MSTORE PUSH1 0x4 PUSH1 0x20 MSTORE PUSH1 0x40 SWAP1 KECCAK256 PUSH1 0x2 DUP2 ADD SWAP2 SWAP1 SWAP2 SSTORE PUSH1 0x7 SLOAD PUSH2 0x1562 SWAP2 PUSH2 0x357 SWAP1 PUSH8 0xDE0B6B3A7640000 SWAP1 PUSH1 0x1 PUSH2 0xF86 JUMP JUMPDEST PUSH1 0x1 PUSH1 0x1 PUSH1 0xA0 SHL SUB DUP3 AND PUSH1 0x0 SWAP1 DUP2 MSTORE PUSH1 0x4 PUSH1 0x20 MSTORE PUSH1 0x40 SWAP1 KECCAK256 PUSH1 0x3 ADD SSTORE POP DUP1 PUSH2 0x1589 DUP2 PUSH2 0x1BA1 JUMP JUMPDEST SWAP2 POP POP PUSH2 0x14C2 JUMP JUMPDEST PUSH1 0x0 JUMPDEST PUSH1 0x5 SLOAD DUP2 LT ISZERO PUSH2 0x13C5 JUMPI PUSH1 0x0 PUSH1 0x5 DUP3 DUP2 SLOAD DUP2 LT PUSH2 0x15B3 JUMPI PUSH2 0x15B3 PUSH2 0x19A3 JUMP JUMPDEST PUSH1 0x0 SWAP2 DUP3 MSTORE PUSH1 0x20 DUP1 DUP4 KECCAK256 SWAP1 SWAP2 ADD SLOAD PUSH1 0x6 SLOAD PUSH1 0x1 PUSH1 0x1 PUSH1 0xA0 SHL SUB SWAP1 SWAP2 AND DUP1 DUP5 MSTORE PUSH1 0x4 SWAP1 SWAP3 MSTORE PUSH1 0x40 DUP4 KECCAK256 SWAP2 SWAP4 POP PUSH2 0x15F8 SWAP3 SWAP1 SWAP2 PUSH2 0x357 SWAP2 PUSH8 0xDE0B6B3A7640000 SWAP2 SWAP1 PUSH2 0xF86 JUMP JUMPDEST PUSH1 0x1 PUSH1 0x1 PUSH1 0xA0 SHL SUB DUP3 AND PUSH1 0x0 SWAP1 DUP2 MSTORE PUSH1 0x4 PUSH1 0x20 MSTORE PUSH1 0x40 SWAP1 KECCAK256 PUSH1 0x2 DUP2 ADD SWAP2 SWAP1 SWAP2 SSTORE PUSH1 0x7 SLOAD PUSH2 0x1634 SWAP2 PUSH2 0x357 SWAP1 PUSH8 0xDE0B6B3A7640000 SWAP1 PUSH1 0x1 PUSH2 0xF86 JUMP JUMPDEST PUSH1 0x1 PUSH1 0x1 PUSH1 0xA0 SHL SUB DUP3 AND PUSH1 0x0 SWAP1 DUP2 MSTORE PUSH1 0x4 PUSH1 0x20 MSTORE PUSH1 0x40 SWAP1 KECCAK256 PUSH1 0x3 DUP2 ADD SWAP2 SWAP1 SWAP2 SSTORE PUSH1 0x6 SLOAD PUSH2 0x1670 SWAP2 PUSH8 0xDE0B6B3A7640000 SWAP2 PUSH2 0x357 SWAP2 PUSH1 0x2 PUSH2 0xF86 JUMP JUMPDEST PUSH1 0x1 PUSH1 0x1 PUSH1 0xA0 SHL SUB DUP3 AND PUSH1 0x0 SWAP1 DUP2 MSTORE PUSH1 0x4 PUSH1 0x20 MSTORE PUSH1 0x40 SWAP1 KECCAK256 SWAP1 DUP2 SSTORE PUSH1 0x7 SLOAD PUSH2 0x16A7 SWAP2 PUSH8 0xDE0B6B3A7640000 SWAP2 PUSH2 0x357 SWAP2 PUSH1 0x3 PUSH2 0xF86 JUMP JUMPDEST PUSH1 0x1 PUSH1 0x1 PUSH1 0xA0 SHL SUB DUP3 AND PUSH1 0x0 SWAP1 DUP2 MSTORE PUSH1 0x4 PUSH1 0x20 MSTORE PUSH1 0x40 SWAP1 KECCAK256 PUSH1 0x1 ADD SSTORE POP DUP1 PUSH2 0x16CE DUP2 PUSH2 0x1BA1 JUMP JUMPDEST SWAP2 POP POP PUSH2 0x1594 JUMP JUMPDEST PUSH1 0x40 MLOAD DUP1 PUSH1 0x40 ADD PUSH1 0x40 MSTORE DUP1 PUSH1 0x2 SWAP1 PUSH1 0x20 DUP3 MUL DUP1 CALLDATASIZE DUP4 CALLDATACOPY POP SWAP2 SWAP3 SWAP2 POP POP JUMP JUMPDEST PUSH1 0x0 PUSH1 0x20 DUP3 DUP5 SUB SLT ISZERO PUSH2 0x1706 JUMPI PUSH1 0x0 DUP1 REVERT JUMPDEST POP CALLDATALOAD SWAP2 SWAP1 POP JUMP JUMPDEST DUP1 CALLDATALOAD PUSH1 0x1 PUSH1 0x1 PUSH1 0xA0 SHL SUB DUP2 AND DUP2 EQ PUSH2 0xED9 JUMPI PUSH1 0x0 DUP1 REVERT JUMPDEST PUSH1 0x0 PUSH1 0x20 DUP3 DUP5 SUB SLT ISZERO PUSH2 0x1736 JUMPI PUSH1 0x0 DUP1 REVERT JUMPDEST PUSH2 0x12E4 DUP3 PUSH2 0x170D JUMP JUMPDEST PUSH1 0x0 DUP1 PUSH1 0x40 DUP4 DUP6 SUB SLT ISZERO PUSH2 0x1752 JUMPI PUSH1 0x0 DUP1 REVERT JUMPDEST PUSH2 0x175B DUP4 PUSH2 0x170D JUMP JUMPDEST SWAP5 PUSH1 0x20 SWAP4 SWAP1 SWAP4 ADD CALLDATALOAD SWAP4 POP POP POP JUMP JUMPDEST PUSH1 0x0 DUP1 PUSH1 0x0 DUP1 PUSH1 0x0 PUSH1 0xA0 DUP7 DUP9 SUB SLT ISZERO PUSH2 0x1781 JUMPI PUSH1 0x0 DUP1 REVERT JUMPDEST PUSH2 0x178A DUP7 PUSH2 0x170D JUMP JUMPDEST SWAP5 POP PUSH2 0x1798 PUSH1 0x20 DUP8 ADD PUSH2 0x170D JUMP JUMPDEST SWAP4 POP PUSH1 0x40 DUP7 ADD CALLDATALOAD SWAP3 POP PUSH2 0x17AD PUSH1 0x60 DUP8 ADD PUSH2 0x170D JUMP JUMPDEST SWAP2 POP PUSH2 0x17BB PUSH1 0x80 DUP8 ADD PUSH2 0x170D JUMP JUMPDEST SWAP1 POP SWAP3 SWAP6 POP SWAP3 SWAP6 SWAP1 SWAP4 POP JUMP JUMPDEST PUSH1 0x40 DUP2 ADD DUP2 DUP4 PUSH1 0x0 JUMPDEST PUSH1 0x2 DUP2 LT ISZERO PUSH2 0x17EF JUMPI DUP2 MLOAD DUP4 MSTORE PUSH1 0x20 SWAP3 DUP4 ADD SWAP3 SWAP1 SWAP2 ADD SWAP1 PUSH1 0x1 ADD PUSH2 0x17D0 JUMP JUMPDEST POP POP POP SWAP3 SWAP2 POP POP JUMP JUMPDEST PUSH1 0x20 DUP1 DUP3 MSTORE DUP3 MLOAD DUP3 DUP3 ADD DUP2 SWAP1 MSTORE PUSH1 0x0 SWAP2 SWAP1 DUP5 DUP3 ADD SWAP1 PUSH1 0x40 DUP6 ADD SWAP1 DUP5 JUMPDEST DUP2 DUP2 LT ISZERO PUSH2 0x1839 JUMPI DUP4 MLOAD PUSH1 0x1 PUSH1 0x1 PUSH1 0xA0 SHL SUB AND DUP4 MSTORE SWAP3 DUP5 ADD SWAP3 SWAP2 DUP5 ADD SWAP2 PUSH1 0x1 ADD PUSH2 0x1814 JUMP JUMPDEST POP SWAP1 SWAP7 SWAP6 POP POP POP POP POP POP JUMP JUMPDEST PUSH1 0x0 DUP1 PUSH1 0x0 DUP1 PUSH1 0x0 PUSH1 0xA0 DUP7 DUP9 SUB SLT ISZERO PUSH2 0x185D JUMPI PUSH1 0x0 DUP1 REVERT JUMPDEST PUSH2 0x1866 DUP7 PUSH2 0x170D JUMP JUMPDEST SWAP5 POP PUSH2 0x1874 PUSH1 0x20 DUP8 ADD PUSH2 0x170D JUMP JUMPDEST SWAP4 POP PUSH2 0x1882 PUSH1 0x40 DUP8 ADD PUSH2 0x170D JUMP JUMPDEST SWAP5 SWAP8 SWAP4 SWAP7 POP SWAP4 SWAP5 PUSH1 0x60 DUP2 ADD CALLDATALOAD SWAP5 POP PUSH1 0x80 ADD CALLDATALOAD SWAP3 SWAP2 POP POP JUMP JUMPDEST PUSH4 0x4E487B71 PUSH1 0xE0 SHL PUSH1 0x0 MSTORE PUSH1 0x11 PUSH1 0x4 MSTORE PUSH1 0x24 PUSH1 0x0 REVERT JUMPDEST PUSH1 0x1 DUP2 DUP2 JUMPDEST DUP1 DUP6 GT ISZERO PUSH2 0x18EB JUMPI DUP2 PUSH1 0x0 NOT DIV DUP3 GT ISZERO PUSH2 0x18D1 JUMPI PUSH2 0x18D1 PUSH2 0x189A JUMP JUMPDEST DUP1 DUP6 AND ISZERO PUSH2 0x18DE JUMPI SWAP2 DUP2 MUL SWAP2 JUMPDEST SWAP4 DUP5 SHR SWAP4 SWAP1 DUP1 MUL SWAP1 PUSH2 0x18B5 JUMP JUMPDEST POP SWAP3 POP SWAP3 SWAP1 POP JUMP JUMPDEST PUSH1 0x0 DUP3 PUSH2 0x1902 JUMPI POP PUSH1 0x1 PUSH2 0x1235 JUMP JUMPDEST DUP2 PUSH2 0x190F JUMPI POP PUSH1 0x0 PUSH2 0x1235 JUMP JUMPDEST DUP2 PUSH1 0x1 DUP2 EQ PUSH2 0x1925 JUMPI PUSH1 0x2 DUP2 EQ PUSH2 0x192F JUMPI PUSH2 0x194B JUMP JUMPDEST PUSH1 0x1 SWAP2 POP POP PUSH2 0x1235 JUMP JUMPDEST PUSH1 0xFF DUP5 GT ISZERO PUSH2 0x1940 JUMPI PUSH2 0x1940 PUSH2 0x189A JUMP JUMPDEST POP POP PUSH1 0x1 DUP3 SHL PUSH2 0x1235 JUMP JUMPDEST POP PUSH1 0x20 DUP4 LT PUSH2 0x133 DUP4 LT AND PUSH1 0x4E DUP5 LT PUSH1 0xB DUP5 LT AND OR ISZERO PUSH2 0x196E JUMPI POP DUP2 DUP2 EXP PUSH2 0x1235 JUMP JUMPDEST PUSH2 0x1978 DUP4 DUP4 PUSH2 0x18B0 JUMP JUMPDEST DUP1 PUSH1 0x0 NOT DIV DUP3 GT ISZERO PUSH2 0x198C JUMPI PUSH2 0x198C PUSH2 0x189A JUMP JUMPDEST MUL SWAP4 SWAP3 POP POP POP JUMP JUMPDEST PUSH1 0x0 PUSH2 0x12E4 PUSH1 0xFF DUP5 AND DUP4 PUSH2 0x18F3 JUMP JUMPDEST PUSH4 0x4E487B71 PUSH1 0xE0 SHL PUSH1 0x0 MSTORE PUSH1 0x32 PUSH1 0x4 MSTORE PUSH1 0x24 PUSH1 0x0 REVERT JUMPDEST PUSH1 0x20 DUP1 DUP3 MSTORE PUSH1 0x27 SWAP1 DUP3 ADD MSTORE PUSH32 0x506169724C6F6769633A204572726F72203D3E204E6F7420616C6C6F77656420 PUSH1 0x40 DUP3 ADD MSTORE PUSH7 0x1D1BC818D85B1B PUSH1 0xCA SHL PUSH1 0x60 DUP3 ADD MSTORE PUSH1 0x80 ADD SWAP1 JUMP JUMPDEST PUSH1 0x0 PUSH1 0x20 DUP3 DUP5 SUB SLT ISZERO PUSH2 0x1A12 JUMPI PUSH1 0x0 DUP1 REVERT JUMPDEST POP MLOAD SWAP2 SWAP1 POP JUMP JUMPDEST PUSH1 0x20 DUP1 DUP3 MSTORE PUSH1 0x34 SWAP1 DUP3 ADD MSTORE PUSH32 0x506169724C6F6769633A204572726F72203D3E2042616C616E636520696E7375 PUSH1 0x40 DUP3 ADD MSTORE PUSH20 0x6666696369656E7420666F7220546F6B656E203 PUSH1 0x64 SHL PUSH1 0x60 DUP3 ADD MSTORE PUSH1 0x80 ADD SWAP1 JUMP JUMPDEST PUSH1 0x0 PUSH1 0x20 DUP3 DUP5 SUB SLT ISZERO PUSH2 0x1A7F JUMPI PUSH1 0x0 DUP1 REVERT JUMPDEST DUP2 MLOAD DUP1 ISZERO ISZERO DUP2 EQ PUSH2 0x12E4 JUMPI PUSH1 0x0 DUP1 REVERT JUMPDEST PUSH1 0x20 DUP1 DUP3 MSTORE PUSH1 0x2C SWAP1 DUP3 ADD MSTORE PUSH32 0x506169724C6F6769633A204572726F72203D3E204C6971756964697479206164 PUSH1 0x40 DUP3 ADD MSTORE PUSH12 0x64656420746F6F206C657373 PUSH1 0xA0 SHL PUSH1 0x60 DUP3 ADD MSTORE PUSH1 0x80 ADD SWAP1 JUMP JUMPDEST DUP2 DUP2 SUB DUP2 DUP2 GT ISZERO PUSH2 0x1235 JUMPI PUSH2 0x1235 PUSH2 0x189A JUMP JUMPDEST PUSH1 0x20 DUP1 DUP3 MSTORE PUSH1 0x31 SWAP1 DUP3 ADD MSTORE PUSH32 0x506169724C6F6769633A204572726F72203D3E204C6971756964697479206469 PUSH1 0x40 DUP3 ADD MSTORE PUSH17 0xCCCCCAE4CADCC6CA40E8DEDE40DAEAC6D PUSH1 0x7B SHL PUSH1 0x60 DUP3 ADD MSTORE PUSH1 0x80 ADD SWAP1 JUMP JUMPDEST DUP1 DUP3 MUL DUP2 ISZERO DUP3 DUP3 DIV DUP5 EQ OR PUSH2 0x1235 JUMPI PUSH2 0x1235 PUSH2 0x189A JUMP JUMPDEST PUSH1 0x0 DUP3 PUSH2 0x1B73 JUMPI PUSH4 0x4E487B71 PUSH1 0xE0 SHL PUSH1 0x0 MSTORE PUSH1 0x12 PUSH1 0x4 MSTORE PUSH1 0x24 PUSH1 0x0 REVERT JUMPDEST POP DIV SWAP1 JUMP JUMPDEST PUSH4 0x4E487B71 PUSH1 0xE0 SHL PUSH1 0x0 MSTORE PUSH1 0x1 PUSH1 0x4 MSTORE PUSH1 0x24 PUSH1 0x0 REVERT JUMPDEST DUP1 DUP3 ADD DUP1 DUP3 GT ISZERO PUSH2 0x1235 JUMPI PUSH2 0x1235 PUSH2 0x189A JUMP JUMPDEST PUSH1 0x0 PUSH1 0x1 DUP3 ADD PUSH2 0x1BB3 JUMPI PUSH2 0x1BB3 PUSH2 0x189A JUMP JUMPDEST POP PUSH1 0x1 ADD SWAP1 JUMP INVALID LOG2 PUSH5 0x6970667358 0x22 SLT KECCAK256 PUSH14 0x9557987B95048E184D2632C6F7B0 0xE1 0x23 0x4F 0xA8 CALLCODE DUP9 0xD SWAP1 0x1E 0x22 0xE2 0xD LOG2 CREATE2 0xE3 0x27 BALANCE PUSH5 0x736F6C6343 STOP ADDMOD SGT STOP CALLER "},"methodIdentifiers":{"ADDR_ETH()":"b4d897dd","ADDR_LOGICCOIN()":"b33c2f81","ADDR_LOGIC_ETH_POOL()":"9b190d18","_calculateOptimalToken0ToSwap(uint256)":"1eae0529","_calculateOptimalToken1ToSwap(uint256)":"44cc6549","addLiquidity(address,address,address,uint256,uint256)":"4ea5efef","addrToken0()":"6d0800b1","addrToken1()":"9056afb1","burnTokens(address)":"b237f7d4","core()":"f2f4eb26","getLPShare0(address)":"29112524","getLPShare1(address)":"9f65e6a8","getReserve0()":"99215eef","getReserve1()":"90dc67e6","getliquidityProviders()":"48349d50","liquidityProviders(uint256)":"96212916","lpShares(address,uint256)":"4172aee1","reserveToken0()":"0d293d3b","reserveToken1()":"3827ebaa","setLogicEthPool(address)":"717dac88","swap(address,address,uint256,address,address)":"44c133e2"}}}}}