{
  "_format": "hh-sol-artifact-1",
  "contractName": "Token",
  "sourceName": "contracts/Token.sol",
  "abi": [
    {
      "inputs": [
        {
          "internalType": "string",
          "name": "_name",
          "type": "string"
        },
        {
          "internalType": "string",
          "name": "_symbol",
          "type": "string"
        },
        {
          "internalType": "uint256",
          "name": "_decimals",
          "type": "uint256"
        },
        {
          "internalType": "uint256",
          "name": "_totalTokens",
          "type": "uint256"
        }
      ],
      "stateMutability": "nonpayable",
      "type": "constructor"
    },
    {
      "anonymous": false,
      "inputs": [
        {
          "indexed": false,
          "internalType": "address",
          "name": "from",
          "type": "address"
        },
        {
          "indexed": false,
          "internalType": "address",
          "name": "spender",
          "type": "address"
        },
        {
          "indexed": false,
          "internalType": "uint256",
          "name": "value",
          "type": "uint256"
        }
      ],
      "name": "Approval",
      "type": "event"
    },
    {
      "anonymous": false,
      "inputs": [
        {
          "indexed": false,
          "internalType": "address",
          "name": "from",
          "type": "address"
        },
        {
          "indexed": false,
          "internalType": "address",
          "name": "to",
          "type": "address"
        },
        {
          "indexed": false,
          "internalType": "uint256",
          "name": "value",
          "type": "uint256"
        }
      ],
      "name": "Transfer",
      "type": "event"
    },
    {
      "inputs": [
        {
          "internalType": "address",
          "name": "owner",
          "type": "address"
        },
        {
          "internalType": "address",
          "name": "spender",
          "type": "address"
        }
      ],
      "name": "allowance",
      "outputs": [
        {
          "internalType": "uint256",
          "name": "",
          "type": "uint256"
        }
      ],
      "stateMutability": "view",
      "type": "function"
    },
    {
      "inputs": [
        {
          "internalType": "address",
          "name": "spender",
          "type": "address"
        },
        {
          "internalType": "uint256",
          "name": "tokens",
          "type": "uint256"
        }
      ],
      "name": "approve",
      "outputs": [
        {
          "internalType": "bool",
          "name": "",
          "type": "bool"
        }
      ],
      "stateMutability": "nonpayable",
      "type": "function"
    },
    {
      "inputs": [
        {
          "internalType": "address",
          "name": "owner",
          "type": "address"
        }
      ],
      "name": "balanceOf",
      "outputs": [
        {
          "internalType": "uint256",
          "name": "",
          "type": "uint256"
        }
      ],
      "stateMutability": "view",
      "type": "function"
    },
    {
      "inputs": [],
      "name": "creator",
      "outputs": [
        {
          "internalType": "address",
          "name": "",
          "type": "address"
        }
      ],
      "stateMutability": "view",
      "type": "function"
    },
    {
      "inputs": [],
      "name": "decimals",
      "outputs": [
        {
          "internalType": "uint256",
          "name": "",
          "type": "uint256"
        }
      ],
      "stateMutability": "view",
      "type": "function"
    },
    {
      "inputs": [],
      "name": "getCreator",
      "outputs": [
        {
          "internalType": "address",
          "name": "",
          "type": "address"
        }
      ],
      "stateMutability": "view",
      "type": "function"
    },
    {
      "inputs": [],
      "name": "name",
      "outputs": [
        {
          "internalType": "string",
          "name": "",
          "type": "string"
        }
      ],
      "stateMutability": "view",
      "type": "function"
    },
    {
      "inputs": [],
      "name": "symbol",
      "outputs": [
        {
          "internalType": "string",
          "name": "",
          "type": "string"
        }
      ],
      "stateMutability": "view",
      "type": "function"
    },
    {
      "inputs": [],
      "name": "totalSupply",
      "outputs": [
        {
          "internalType": "uint256",
          "name": "",
          "type": "uint256"
        }
      ],
      "stateMutability": "view",
      "type": "function"
    },
    {
      "inputs": [],
      "name": "totalTokens",
      "outputs": [
        {
          "internalType": "uint256",
          "name": "",
          "type": "uint256"
        }
      ],
      "stateMutability": "view",
      "type": "function"
    },
    {
      "inputs": [
        {
          "internalType": "address",
          "name": "to",
          "type": "address"
        },
        {
          "internalType": "uint256",
          "name": "tokens",
          "type": "uint256"
        }
      ],
      "name": "transfer",
      "outputs": [
        {
          "internalType": "bool",
          "name": "",
          "type": "bool"
        }
      ],
      "stateMutability": "nonpayable",
      "type": "function"
    },
    {
      "inputs": [
        {
          "internalType": "address",
          "name": "from",
          "type": "address"
        },
        {
          "internalType": "address",
          "name": "to",
          "type": "address"
        },
        {
          "internalType": "uint256",
          "name": "tokens",
          "type": "uint256"
        }
      ],
      "name": "transferFrom",
      "outputs": [
        {
          "internalType": "bool",
          "name": "",
          "type": "bool"
        }
      ],
      "stateMutability": "nonpayable",
      "type": "function"
    }
  ],
  "bytecode": "0x60806040523480156200001157600080fd5b5060405162000b5e38038062000b5e833981016040819052620000349162000151565b60006200004285826200025a565b5060016200005184826200025a565b50600291909155600681905533600081815260046020526040902091909155600380546001600160a01b031916909117905550620003269050565b634e487b7160e01b600052604160045260246000fd5b600082601f830112620000b457600080fd5b81516001600160401b0380821115620000d157620000d16200008c565b604051601f8301601f19908116603f01168101908282118183101715620000fc57620000fc6200008c565b816040528381526020925086838588010111156200011957600080fd5b600091505b838210156200013d57858201830151818301840152908201906200011e565b600093810190920192909252949350505050565b600080600080608085870312156200016857600080fd5b84516001600160401b03808211156200018057600080fd5b6200018e88838901620000a2565b95506020870151915080821115620001a557600080fd5b50620001b487828801620000a2565b604087015160609097015195989097509350505050565b600181811c90821680620001e057607f821691505b6020821081036200020157634e487b7160e01b600052602260045260246000fd5b50919050565b601f8211156200025557600081815260208120601f850160051c81016020861015620002305750805b601f850160051c820191505b8181101562000251578281556001016200023c565b5050505b505050565b81516001600160401b038111156200027657620002766200008c565b6200028e81620002878454620001cb565b8462000207565b602080601f831160018114620002c65760008415620002ad5750858301515b600019600386901b1c1916600185901b17855562000251565b600085815260208120601f198616915b82811015620002f757888601518255948401946001909101908401620002d6565b5085821015620003165787850151600019600388901b60f8161c191681555b5050505050600190811b01905550565b61082880620003366000396000f3fe608060405234801561001057600080fd5b50600436106100b45760003560e01c8063313ce56711610071578063313ce5671461015757806370a08231146101605780637e1c0c091461018957806395d89b4114610192578063a9059cbb1461019a578063dd62ed3e146101ad57600080fd5b806302d05d3f146100b957806306fdde03146100e9578063095ea7b3146100fe5780630ee2cb101461012157806318160ddd1461013257806323b872dd14610144575b600080fd5b6003546100cc906001600160a01b031681565b6040516001600160a01b0390911681526020015b60405180910390f35b6100f16101e6565b6040516100e09190610603565b61011161010c36600461066d565b610274565b60405190151581526020016100e0565b6003546001600160a01b03166100cc565b6006545b6040519081526020016100e0565b610111610152366004610697565b6102e6565b61013660025481565b61013661016e3660046106d3565b6001600160a01b031660009081526004602052604090205490565b61013660065481565b6100f161046c565b6101116101a836600461066d565b610479565b6101366101bb3660046106ee565b6001600160a01b03918216600090815260056020908152604080832093909416825291909152205490565b600080546101f390610721565b80601f016020809104026020016040519081016040528092919081815260200182805461021f90610721565b801561026c5780601f106102415761010080835404028352916020019161026c565b820191906000526020600020905b81548152906001019060200180831161024f57829003601f168201915b505050505081565b3360008181526005602090815260408083206001600160a01b0387168085529083528184208690558151948552918401919091528201839052907f8c5be1e5ebec7d5bd14f71427d1e84f3dd0314c0f7b2291e5b200ac8c7c3b925906060015b60405180910390a15060015b92915050565b6001600160a01b038084166000818152600460209081526040808320549487168084528184205494845260058352818420908452909152812054909291908483101561034d5760405162461bcd60e51b81526004016103449061075b565b60405180910390fd5b848110156103b15760405162461bcd60e51b815260206004820152602b60248201527f454d54543a204572726f72203d3e2054686973206d616e7920746f6b656e732060448201526a1b9bdd08185b1b1bddd95960aa1b6064820152608401610344565b6103bb81866105c2565b90506103c783866105c2565b92506103d382866105e5565b604080516001600160a01b03808b168252891660208201529081018790529092507fddf252ad1be2c89b69c2b068fc378daa952ba7f163c4a11628f55a4df523b3ef9060600160405180910390a16001600160a01b038088166000818152600460209081526040808320979097559289168082528682209590955590815260058252848120938152929052919020555060019392505050565b600180546101f390610721565b6000336001600160a01b038416036104f25760405162461bcd60e51b815260206004820152603660248201527f454d54543a204572726f72203d3e20596f752063616e6e6f74207472616e7366604482015275195c881d1bc81e5bdd5c881bdddb881858d8dbdd5b9d60521b6064820152608401610344565b336000908152600460205260409020548211156105215760405162461bcd60e51b81526004016103449061075b565b3360009081526004602052604090205461053b90836105c2565b33600090815260046020526040808220929092556001600160a01b0385168152205461056790836105e5565b6001600160a01b0384166000818152600460209081526040918290209390935580513381529283019190915281018390527fddf252ad1be2c89b69c2b068fc378daa952ba7f163c4a11628f55a4df523b3ef906060016102d4565b6000828211156105d4576105d46107a0565b6105de82846107cc565b9392505050565b60006105f182846107df565b9050828110156102e0576102e06107a0565b600060208083528351808285015260005b8181101561063057858101830151858201604001528201610614565b506000604082860101526040601f19601f8301168501019250505092915050565b80356001600160a01b038116811461066857600080fd5b919050565b6000806040838503121561068057600080fd5b61068983610651565b946020939093013593505050565b6000806000606084860312156106ac57600080fd5b6106b584610651565b92506106c360208501610651565b9150604084013590509250925092565b6000602082840312156106e557600080fd5b6105de82610651565b6000806040838503121561070157600080fd5b61070a83610651565b915061071860208401610651565b90509250929050565b600181811c9082168061073557607f821691505b60208210810361075557634e487b7160e01b600052602260045260246000fd5b50919050565b60208082526025908201527f454d54543a204572726f72203d3e2042616c616e6365206e6f7420737566666960408201526418da595b9d60da1b606082015260800190565b634e487b7160e01b600052600160045260246000fd5b634e487b7160e01b600052601160045260246000fd5b818103818111156102e0576102e06107b6565b808201808211156102e0576102e06107b656fea26469706673582212205cb143b12506c2f2dd548c6eac0fbcc311fd70f8e8b0009fa4a1cb506e3f16bd64736f6c63430008130033",
  "linkReferences": {},
  "deployedLinkReferences": {}
}