{
  "_format": "hh-sol-artifact-1",
  "contractName": "CoreLogic",
  "sourceName": "contracts/CoreLogic.sol",
  "abi": [
    {
      "anonymous": false,
      "inputs": [
        {
          "indexed": true,
          "internalType": "address",
          "name": "owner",
          "type": "address"
        },
        {
          "indexed": true,
          "internalType": "address",
          "name": "addrToken0",
          "type": "address"
        },
        {
          "indexed": true,
          "internalType": "address",
          "name": "addrToken1",
          "type": "address"
        }
      ],
      "name": "Burned",
      "type": "event"
    },
    {
      "anonymous": false,
      "inputs": [
        {
          "indexed": true,
          "internalType": "address",
          "name": "pair",
          "type": "address"
        },
        {
          "indexed": true,
          "internalType": "address",
          "name": "addrToken0",
          "type": "address"
        },
        {
          "indexed": true,
          "internalType": "address",
          "name": "addrToken1",
          "type": "address"
        }
      ],
      "name": "Deployed",
      "type": "event"
    },
    {
      "anonymous": false,
      "inputs": [
        {
          "indexed": false,
          "internalType": "address",
          "name": "lp",
          "type": "address"
        },
        {
          "indexed": true,
          "internalType": "address",
          "name": "addrToken0",
          "type": "address"
        },
        {
          "indexed": true,
          "internalType": "address",
          "name": "addrToken1",
          "type": "address"
        },
        {
          "indexed": true,
          "internalType": "address",
          "name": "addrPair",
          "type": "address"
        },
        {
          "indexed": false,
          "internalType": "uint256",
          "name": "token0",
          "type": "uint256"
        },
        {
          "indexed": false,
          "internalType": "uint256",
          "name": "token1",
          "type": "uint256"
        }
      ],
      "name": "LiquidityAdded",
      "type": "event"
    },
    {
      "anonymous": false,
      "inputs": [
        {
          "indexed": true,
          "internalType": "address",
          "name": "to",
          "type": "address"
        },
        {
          "indexed": true,
          "internalType": "address",
          "name": "addrToken0",
          "type": "address"
        },
        {
          "indexed": true,
          "internalType": "address",
          "name": "addrToken1",
          "type": "address"
        },
        {
          "indexed": false,
          "internalType": "uint256",
          "name": "token0In",
          "type": "uint256"
        },
        {
          "indexed": false,
          "internalType": "uint256",
          "name": "token1Out",
          "type": "uint256"
        }
      ],
      "name": "Swap",
      "type": "event"
    },
    {
      "inputs": [
        {
          "internalType": "address",
          "name": "addrToken0",
          "type": "address"
        },
        {
          "internalType": "address",
          "name": "addrToken1",
          "type": "address"
        },
        {
          "internalType": "uint256",
          "name": "token0In",
          "type": "uint256"
        },
        {
          "internalType": "uint256",
          "name": "token1In",
          "type": "uint256"
        }
      ],
      "name": "addLiquidity",
      "outputs": [
        {
          "internalType": "bool",
          "name": "",
          "type": "bool"
        }
      ],
      "stateMutability": "nonpayable",
      "type": "function"
    },
    {
      "inputs": [
        {
          "internalType": "address",
          "name": "addrToken0",
          "type": "address"
        },
        {
          "internalType": "address",
          "name": "addrToken1",
          "type": "address"
        }
      ],
      "name": "burn",
      "outputs": [
        {
          "internalType": "bool",
          "name": "",
          "type": "bool"
        }
      ],
      "stateMutability": "nonpayable",
      "type": "function"
    },
    {
      "inputs": [
        {
          "internalType": "address",
          "name": "_addrToken0",
          "type": "address"
        },
        {
          "internalType": "address",
          "name": "_addrToken1",
          "type": "address"
        }
      ],
      "name": "createPair",
      "outputs": [
        {
          "internalType": "address",
          "name": "pair",
          "type": "address"
        }
      ],
      "stateMutability": "nonpayable",
      "type": "function"
    },
    {
      "inputs": [
        {
          "internalType": "address",
          "name": "addrToken0",
          "type": "address"
        },
        {
          "internalType": "address",
          "name": "addrToken1",
          "type": "address"
        }
      ],
      "name": "getPairMap",
      "outputs": [
        {
          "internalType": "address",
          "name": "",
          "type": "address"
        }
      ],
      "stateMutability": "view",
      "type": "function"
    },
    {
      "inputs": [
        {
          "internalType": "address",
          "name": "",
          "type": "address"
        },
        {
          "internalType": "address",
          "name": "",
          "type": "address"
        }
      ],
      "name": "pairMap",
      "outputs": [
        {
          "internalType": "address",
          "name": "",
          "type": "address"
        }
      ],
      "stateMutability": "view",
      "type": "function"
    },
    {
      "inputs": [
        {
          "internalType": "address",
          "name": "addrToken0",
          "type": "address"
        },
        {
          "internalType": "address",
          "name": "addrToken1",
          "type": "address"
        },
        {
          "internalType": "uint256",
          "name": "token0In",
          "type": "uint256"
        },
        {
          "internalType": "address",
          "name": "to",
          "type": "address"
        }
      ],
      "name": "swapTokens",
      "outputs": [
        {
          "internalType": "bool",
          "name": "",
          "type": "bool"
        }
      ],
      "stateMutability": "nonpayable",
      "type": "function"
    }
  ],
  "bytecode": "0x608060405234801561001057600080fd5b50613655806100206000396000f3fe608060405234801561001057600080fd5b50600436106100625760003560e01c806305484a831461006757806327fc84a3146100b55780637a5c454a146100d8578063c9c65396146100eb578063cf6c62ea146100fe578063d16219c014610111575b600080fd5b61009861007536600461152a565b60006020818152928152604080822090935290815220546001600160a01b031681565b6040516001600160a01b0390911681526020015b60405180910390f35b6100c86100c336600461152a565b610124565b60405190151581526020016100ac565b6100c86100e6366004611563565b6102be565b6100986100f936600461152a565b610571565b6100c861010c3660046115b6565b61097f565b61009861011f36600461152a565b610caf565b600082826001600160a01b0382161580159061014857506001600160a01b03811615155b61016d5760405162461bcd60e51b8152600401610164906115fc565b60405180910390fd5b806001600160a01b0316826001600160a01b03160361019e5760405162461bcd60e51b815260040161016490611649565b6001600160a01b038581166000908152602081815260408083208885168452909152808220549051632c8dfdf560e21b81523360048201529192169063b237f7d4906024016020604051808303816000875af1158015610202573d6000803e3d6000fd5b505050506040513d601f19601f820116820180604052508101906102269190611695565b9050806102755760405162461bcd60e51b815260206004820152601f60248201527f436f72654c6f6769633a204572726f72203d3e204275726e204661696c6564006044820152606401610164565b6040516001600160a01b03808716919088169033907f7ab4003d63e562ed0e42274da6b4c768e94a4b6ca0c53a69dc41a6bf2e4ff21390600090a460019350505b505092915050565b600084846001600160a01b038216158015906102e257506001600160a01b03811615155b6102fe5760405162461bcd60e51b8152600401610164906115fc565b806001600160a01b0316826001600160a01b03160361032f5760405162461bcd60e51b815260040161016490611649565b6001600160a01b03841661039d5760405162461bcd60e51b815260206004820152602f60248201527f436f72654c6f6769633a204572726f72203d3e2052656365697665722061646460448201526e1c995cdcc81a5cc81a5b9d985b1a59608a1b6064820152608401610164565b6001600160a01b038781166000818152602081815260408083208b8616808552925280832054905163226099f160e11b815260048101949094526024840191909152604483018990528784166064840152336084840152909216906344c133e29060a40160408051808303816000875af115801561041f573d6000803e3d6000fd5b505050506040513d601f19601f8201168201806040525081019061044391906116fe565b60208101519091506000036104ad5760405162461bcd60e51b815260206004820152602a60248201527f436f72654c6f6769633a204572726f72203d3e205377617070696e6720546f6b604482015269195b9cc811985a5b195960b21b6064820152608401610164565b60006104b98989610cdc565b9050806105135760405162461bcd60e51b815260206004820152602260248201527f436f72654c6f6769633a204572726f72203d3e204d696e74696e67204661696c604482015261195960f21b6064820152608401610164565b815160208084015160408051938452918301526001600160a01b038a8116928c821692918a16917fcd3829a3813dc3cdd188fd3d01dcf3268c16be2fdd2dd21d0665418816e46062910160405180910390a498975050505050505050565b600082826001600160a01b0382161580159061059557506001600160a01b03811615155b6105b15760405162461bcd60e51b8152600401610164906115fc565b806001600160a01b0316826001600160a01b0316036105e25760405162461bcd60e51b815260040161016490611649565b6001600160a01b038581166000908152602081815260408083208885168452909152902054166102b6576040516bffffffffffffffffffffffff19606087811b8216602084015286901b1660348201526000906048016040516020818303038152906040528051906020012090508086863060405161066090611504565b6001600160a01b039384168152918316602083015290911660408201526060018190604051809103906000f59050801580156106a0573d6000803e3d6000fd5b5093506001600160a01b0384166107135760405162461bcd60e51b815260206004820152603160248201527f436f72654c6f6769633a204572726f72203d3e204661696c65642063726561746044820152701a5b99c81c185a5c8818dbdb9d1c9858dd607a1b6064820152608401610164565b6001600160a01b038087166000818152602081815260408083208a8616845282528083208054958a166001600160a01b0319968716811790915583835281842094845293825280832080549095168417909455835163b33c2f8160e01b81529351919363b33c2f8192600480830193928290030181865afa15801561079c573d6000803e3d6000fd5b505050506040513d601f19601f820116820180604052508101906107c09190611794565b90506000856001600160a01b031663b4d897dd6040518163ffffffff1660e01b8152600401602060405180830381865afa158015610802573d6000803e3d6000fd5b505050506040513d601f19601f820116820180604052508101906108269190611794565b6001600160a01b038381166000908152602081815260408083208585168452909152808220549051630e2fb59160e31b81529083166004820152929350919088169063717dac88906024016020604051808303816000875af1158015610890573d6000803e3d6000fd5b505050506040513d601f19601f820116820180604052508101906108b49190611695565b9050806109295760405162461bcd60e51b815260206004820152603760248201527f436f72654c6f6769633a204572726f72203d3e204661696c6564207768696c6560448201527f2073657474696e67204c4f4749432f45544820706f6f6c0000000000000000006064820152608401610164565b876001600160a01b0316896001600160a01b0316886001600160a01b03167fc95935a66d15e0da5e412aca0ad27ae891d20b2fb91cf3994b6a3bf2b817808260405160405180910390a450505050505092915050565b600084846001600160a01b038216158015906109a357506001600160a01b03811615155b6109bf5760405162461bcd60e51b8152600401610164906115fc565b806001600160a01b0316826001600160a01b0316036109f05760405162461bcd60e51b815260040161016490611649565b6040516370a0823160e01b8152336004820152879087906000906001600160a01b038416906370a0823190602401602060405180830381865afa158015610a3b573d6000803e3d6000fd5b505050506040513d601f19601f82011682018060405250810190610a5f91906117b1565b6040516370a0823160e01b81523360048201529091506000906001600160a01b038416906370a0823190602401602060405180830381865afa158015610aa9573d6000803e3d6000fd5b505050506040513d601f19601f82011682018060405250810190610acd91906117b1565b905088821015610aef5760405162461bcd60e51b8152600401610164906117ca565b87811015610b0f5760405162461bcd60e51b8152600401610164906117ca565b6001600160a01b03848116600090815260208181526040808320878516845290915290205416610b975760405162461bcd60e51b815260206004820152602d60248201527f436f72654c6f6769633a204572726f72203d3e205061697220636f6e7472616360448201526c1d081b9bdd0818dc99585d1959609a1b6064820152608401610164565b6001600160a01b038085166000818152602081815260408083208886168085529252808320549051634ea5efef60e01b815233600482015260248101949094526044840191909152606483018d9052608483018c905290921690634ea5efef9060a4016020604051808303816000875af1158015610c19573d6000803e3d6000fd5b505050506040513d601f19601f82011682018060405250810190610c3d9190611695565b905080610ca05760405162461bcd60e51b815260206004820152602b60248201527f436f72654c6f6769633a204572726f72203d3e20416464696e67204c6971756960448201526a191a5d1e4811985a5b195960aa1b6064820152608401610164565b9b9a5050505050505050505050565b6001600160a01b038083166000908152602081815260408083208585168452909152902054165b92915050565b6001600160a01b03808316600090815260208181526040808320858516845290915280822054815163048349d560e41b8152915192931691839183916348349d509160048082019286929091908290030181865afa158015610d42573d6000803e3d6000fd5b505050506040513d6000823e601f3d908101601f19168201604052610d6a9190810190611811565b90506000610d77836112ab565b905060005b825181101561129e576000846001600160a01b0316634172aee1858481518110610da857610da861177e565b602002602001015160026040518363ffffffff1660e01b8152600401610de39291906001600160a01b03929092168252602082015260400190565b602060405180830381865afa158015610e00573d6000803e3d6000fd5b505050506040513d601f19601f82011682018060405250810190610e2491906117b1565b90506000856001600160a01b0316634172aee1868581518110610e4957610e4961177e565b602002602001015160036040518363ffffffff1660e01b8152600401610e849291906001600160a01b03929092168252602082015260400190565b602060405180830381865afa158015610ea1573d6000803e3d6000fd5b505050506040513d601f19601f82011682018060405250810190610ec591906117b1565b9050600081831015610ed75781610ed9565b825b90506000610ef9670de0b6b3a7640000610ef388856114bb565b906114f1565b90506000886001600160a01b031663b33c2f816040518163ffffffff1660e01b8152600401602060405180830381865afa158015610f3b573d6000803e3d6000fd5b505050506040513d601f19601f82011682018060405250810190610f5f9190611794565b6001600160a01b03166323b872dd8a6001600160a01b031663b33c2f816040518163ffffffff1660e01b8152600401602060405180830381865afa158015610fab573d6000803e3d6000fd5b505050506040513d601f19601f82011682018060405250810190610fcf9190611794565b6001600160a01b0316630ee2cb106040518163ffffffff1660e01b8152600401602060405180830381865afa15801561100c573d6000803e3d6000fd5b505050506040513d601f19601f820116820180604052508101906110309190611794565b6040516001600160e01b031960e084901b1681526001600160a01b039091166004820152306024820152604481018590526064016020604051808303816000875af1158015611083573d6000803e3d6000fd5b505050506040513d601f19601f820116820180604052508101906110a79190611695565b90508061112d5760405162461bcd60e51b815260206004820152604860248201527f506169724c6f6769633a204572726f72203d3e205472616e736665722046616960448201527f6c65642066726f6d206c6f67696320636f6e747261637420746f20636f72652060648201526718dbdb9d1c9858dd60c21b608482015260a401610164565b886001600160a01b031663b33c2f816040518163ffffffff1660e01b8152600401602060405180830381865afa15801561116b573d6000803e3d6000fd5b505050506040513d601f19601f8201168201806040525081019061118f9190611794565b6001600160a01b031663a9059cbb8988815181106111af576111af61177e565b6020026020010151846040518363ffffffff1660e01b81526004016111e99291906001600160a01b03929092168252602082015260400190565b6020604051808303816000875af1158015611208573d6000803e3d6000fd5b505050506040513d601f19601f8201168201806040525081019061122c9190611695565b9050806112865760405162461bcd60e51b815260206004820152602260248201527f506169724c6f6769633a204572726f72203d3e204d696e74696e67206661696c604482015261195960f21b6064820152608401610164565b50505050508080611296906118d9565b915050610d7c565b5060019695505050505050565b600080600080846001600160a01b031663b33c2f816040518163ffffffff1660e01b8152600401602060405180830381865afa1580156112ef573d6000803e3d6000fd5b505050506040513d601f19601f820116820180604052508101906113139190611794565b6001600160a01b03166001600160a01b031681526020019081526020016000206000846001600160a01b031663b4d897dd6040518163ffffffff1660e01b8152600401602060405180830381865afa158015611373573d6000803e3d6000fd5b505050506040513d601f19601f820116820180604052508101906113979190611794565b6001600160a01b03166001600160a01b0316815260200190815260200160002060009054906101000a90046001600160a01b031690506000816001600160a01b0316630d293d3b6040518163ffffffff1660e01b8152600401602060405180830381865afa15801561140d573d6000803e3d6000fd5b505050506040513d601f19601f8201168201806040525081019061143191906117b1565b90506000826001600160a01b0316633827ebaa6040518163ffffffff1660e01b8152600401602060405180830381865afa158015611473573d6000803e3d6000fd5b505050506040513d601f19601f8201168201806040525081019061149791906117b1565b905060006114b183610ef384670de0b6b3a76400006114bb565b9695505050505050565b6000826000036114cd57506000610cd6565b6114d782846118f2565b9050816114e48483611909565b14610cd657610cd661192b565b60006114fd8284611909565b9392505050565b611cde806200194283390190565b6001600160a01b038116811461152757600080fd5b50565b6000806040838503121561153d57600080fd5b823561154881611512565b9150602083013561155881611512565b809150509250929050565b6000806000806080858703121561157957600080fd5b843561158481611512565b9350602085013561159481611512565b92506040850135915060608501356115ab81611512565b939692955090935050565b600080600080608085870312156115cc57600080fd5b84356115d781611512565b935060208501356115e781611512565b93969395505050506040820135916060013590565b6020808252602d908201527f436f72654c6f6769633a204572726f72203d3e20416464726573732076616c7560408201526c0652063616e6e6f74206265203609c1b606082015260800190565b6020808252602c908201527f436f72654c6f6769633a204572726f72203d3e20546f6b656e73206d7573742060408201526b189948191a5999995c995b9d60a21b606082015260800190565b6000602082840312156116a757600080fd5b815180151581146114fd57600080fd5b634e487b7160e01b600052604160045260246000fd5b604051601f8201601f1916810167ffffffffffffffff811182821017156116f6576116f66116b7565b604052919050565b60006040828403121561171057600080fd5b82601f83011261171f57600080fd5b6040516040810181811067ffffffffffffffff82111715611742576117426116b7565b806040525080604084018581111561175957600080fd5b845b8181101561177357805183526020928301920161175b565b509195945050505050565b634e487b7160e01b600052603260045260246000fd5b6000602082840312156117a657600080fd5b81516114fd81611512565b6000602082840312156117c357600080fd5b5051919050565b60208082526027908201527f436f72654c6f6769633a204572726f72203d3e20496e73756666696369656e7460408201526620546f6b656e7360c81b606082015260800190565b6000602080838503121561182457600080fd5b825167ffffffffffffffff8082111561183c57600080fd5b818501915085601f83011261185057600080fd5b815181811115611862576118626116b7565b8060051b91506118738483016116cd565b818152918301840191848101908884111561188d57600080fd5b938501935b838510156118b757845192506118a783611512565b8282529385019390850190611892565b98975050505050505050565b634e487b7160e01b600052601160045260246000fd5b6000600182016118eb576118eb6118c3565b5060010190565b8082028115828204841417610cd657610cd66118c3565b60008261192657634e487b7160e01b600052601260045260246000fd5b500490565b634e487b7160e01b600052600160045260246000fdfe60806040523480156200001157600080fd5b5060405162001cde38038062001cde833981016040819052620000349162000094565b600080546001600160a01b039485166001600160a01b031991821617909155600180549385169382169390931790925560028054919093169116179055620000de565b80516001600160a01b03811681146200008f57600080fd5b919050565b600080600060608486031215620000aa57600080fd5b620000b58462000077565b9250620000c56020850162000077565b9150620000d56040850162000077565b90509250925092565b611bf080620000ee6000396000f3fe608060405234801561001057600080fd5b50600436106101375760003560e01c8063717dac88116100b85780639b190d181161007c5780639b190d18146102795780639f65e6a81461028c578063b237f7d41461029f578063b33c2f81146102b2578063b4d897dd146102cd578063f2f4eb26146102e857600080fd5b8063717dac88146102305780639056afb11461024357806390dc67e614610256578063962129161461025e57806399215eef1461027157600080fd5b806344c133e2116100ff57806344c133e21461019a57806344cc6549146101ba57806348349d50146101cd5780634ea5efef146101e25780636d0800b11461020557600080fd5b80630d293d3b1461013c5780631eae052914610158578063291125241461016b5780633827ebaa1461017e5780634172aee114610187575b600080fd5b61014560065481565b6040519081526020015b60405180910390f35b6101456101663660046116f4565b6102fb565b610145610179366004611724565b610365565b61014560075481565b61014561019536600461173f565b610388565b6101ad6101a8366004611769565b6103ad565b60405161014f91906117c7565b6101456101c83660046116f4565b6107b0565b6101d561081a565b60405161014f91906117f8565b6101f56101f0366004611845565b61087c565b604051901515815260200161014f565b600054610218906001600160a01b031681565b6040516001600160a01b03909116815260200161014f565b6101f561023e366004611724565b610e18565b600154610218906001600160a01b031681565b600754610145565b61021861026c3660046116f4565b610ede565b600654610145565b600354610218906001600160a01b031681565b61014561029a366004611724565b610f08565b6101f56102ad366004611724565b610f27565b610218735fbdb2315678afecb367f032d93f642f64180aa381565b610218739fe46736679d2d9a65f0992f2272de9f3c7fa6e081565b600254610218906001600160a01b031681565b6006546000908161035d6107ca610357610317856107cd6111ff565b61035161034c610334623cda2061032e8a8d6111ff565b906111ff565b610346623cda2961032e60028c611994565b9061123b565b611259565b906112c8565b906112eb565b949350505050565b6001600160a01b038116600090815260046020526040812060025b015492915050565b600460205281600052604060002081600481106103a457600080fd5b01549150829050565b6103b56116d6565b6002546001600160a01b031633146103e85760405162461bcd60e51b81526004016103df906119b9565b60405180910390fd5b6001600160a01b0383166104645760405162461bcd60e51b815260206004820152603d60248201527f506169724c6f6769633a204572726f72203d3e205265636569766572206f662060448201527f746f6b656e7320616464726573732063616e6e6f74206265207a65726f00000060648201526084016103df565b600061046f856102fb565b6040516370a0823160e01b81526001600160a01b03858116600483015291925082918916906370a0823190602401602060405180830381865afa1580156104ba573d6000803e3d6000fd5b505050506040513d601f19601f820116820180604052508101906104de9190611a00565b10156104fc5760405162461bcd60e51b81526004016103df90611a19565b6000610507826107b0565b905080600754116105795760405162461bcd60e51b815260206004820152603660248201527f506169724c6f6769633a204572726f72203d3e20526573657276657320746f6f604482015275081cdb585b1b08199bdc881d1a1a5cc8185b5bdd5b9d60521b60648201526084016103df565b6040516323b872dd60e01b81526001600160a01b03858116600483015230602483015260448201889052600091908a16906323b872dd906064016020604051808303816000875af11580156105d2573d6000803e3d6000fd5b505050506040513d601f19601f820116820180604052508101906105f69190611a6d565b9050806106595760405162461bcd60e51b815260206004820152602b60248201527f506169724c6f6769633a204572726f72203d3e2053776170206661696c65642060448201526a0666f7220546f6b656e20360ac1b60648201526084016103df565b60405163a9059cbb60e01b81526001600160a01b0387811660048301526024820184905289169063a9059cbb906044016020604051808303816000875af11580156106a8573d6000803e3d6000fd5b505050506040513d601f19601f820116820180604052508101906106cc9190611a6d565b90508061072f5760405162461bcd60e51b815260206004820152602b60248201527f506169724c6f6769633a204572726f72203d3e2053776170206661696c65642060448201526a666f7220546f6b656e203160a81b60648201526084016103df565b6000546001600160a01b03908116908a160361076a57600654610752908861123b565b60065560075461076290836112c8565b60075561078b565b600754610777908861123b565b60075560065461078790836112c8565b6006555b6107936112f7565b506040805180820190915291825260208201529695505050505050565b60075460065460009190826107db6103e86103576103e561032e670de0b6b3a764000083898c6111ff565b905060006107f5836103466103e86103578a6103e56111ff565b9050600061080f8261035785670de0b6b3a76400006111ff565b979650505050505050565b6060600580548060200260200160405190810160405280929190818152602001828054801561087257602002820191906000526020600020905b81546001600160a01b03168152600190910190602001808311610854575b5050505050905090565b6002546000906001600160a01b031633146108a95760405162461bcd60e51b81526004016103df906119b9565b82826000821180156108bb5750600081115b6109225760405162461bcd60e51b815260206004820152603260248201527f506169724c6f6769633a204572726f72203d3e205a65726f206c6971756964696044820152711d1e4818d85b9b9bdd08189948185919195960721b60648201526084016103df565b8484808210610983576103e881101561094d5760405162461bcd60e51b81526004016103df90611a8f565b670de0b6b3a76400006109608284611adb565b111561097e5760405162461bcd60e51b81526004016103df90611aee565b6109d6565b6103e88210156109a55760405162461bcd60e51b81526004016103df90611a8f565b670de0b6b3a76400006109b88383611adb565b11156109d65760405162461bcd60e51b81526004016103df90611aee565b600654600754600080546001600160a01b038d8116911614610a18575050600180546000546007546006546001600160a01b039384169e50929091169b509250905b8215610a3f57610a2c82610357858c6111ff565b9950610a3c83610357848d6111ff565b98505b6040516370a0823160e01b81526001600160a01b038e811660048301528b91908e16906370a0823190602401602060405180830381865afa158015610a88573d6000803e3d6000fd5b505050506040513d601f19601f82011682018060405250810190610aac9190611a00565b1015610aca5760405162461bcd60e51b81526004016103df90611a19565b6040516370a0823160e01b81526001600160a01b038e811660048301528a91908d16906370a0823190602401602060405180830381865afa158015610b13573d6000803e3d6000fd5b505050506040513d601f19601f82011682018060405250810190610b379190611a00565b1015610ba25760405162461bcd60e51b815260206004820152603460248201527f506169724c6f6769633a204572726f72203d3e2042616c616e636520696e73756044820152736666696369656e7420666f7220546f6b656e203160601b60648201526084016103df565b6040516323b872dd60e01b81526001600160a01b038e81166004830152306024830152604482018c9052600091908e16906323b872dd906064016020604051808303816000875af1158015610bfb573d6000803e3d6000fd5b505050506040513d601f19601f82011682018060405250810190610c1f9190611a6d565b905080610c865760405162461bcd60e51b815260206004820152602f60248201527f506169724c6f6769633a204572726f72203d3e205472616e736665722046616960448201526e06c656420666f7220546f6b656e203608c1b60648201526084016103df565b6040516323b872dd60e01b81526001600160a01b038f81166004830152306024830152604482018c90528d16906323b872dd906064016020604051808303816000875af1158015610cdb573d6000803e3d6000fd5b505050506040513d601f19601f82011682018060405250810190610cff9190611a6d565b905080610d665760405162461bcd60e51b815260206004820152602f60248201527f506169724c6f6769633a204572726f72203d3e205472616e736665722046616960448201526e6c656420666f7220546f6b656e203160881b60648201526084016103df565b60058e9080600181540180825580915050600190039060005260206000200160009091909190916101000a8154816001600160a01b0302191690836001600160a01b03160217905550610dc28b8561123b90919063ffffffff16565b9350610dce838b61123b565b92508115610de55760068390556007849055610df0565b600684905560078390555b610dfc8e8e8d8d6113c8565b610e046114bf565b5060019d9c50505050505050505050505050565b6002546000906001600160a01b03163314610e455760405162461bcd60e51b81526004016103df906119b9565b600380546001600160a01b0319166001600160a01b038416908117909155610ed55760405162461bcd60e51b815260206004820152603760248201527f506169724c6f6769633a204572726f72203d3e204661696c6564207768696c6560448201527f2073657474696e67204c4f4749432f45544820706f6f6c00000000000000000060648201526084016103df565b5060015b919050565b60058181548110610eee57600080fd5b6000918252602090912001546001600160a01b0316905081565b6001600160a01b03811660009081526004602052604081206003610380565b6002546000906001600160a01b03163314610f545760405162461bcd60e51b81526004016103df906119b9565b6006546001600160a01b03831660009081526004602052604081209091610f8e91670de0b6b3a7640000916103579160025b0154906111ff565b6007546001600160a01b038516600090815260046020526040812092935091610fc791670de0b6b3a76400009161035791906003610f86565b6000805460405163a9059cbb60e01b81526001600160a01b038881166004830152602482018790529394509192169063a9059cbb906044016020604051808303816000875af115801561101e573d6000803e3d6000fd5b505050506040513d601f19601f820116820180604052508101906110429190611a6d565b9050806110a85760405162461bcd60e51b815260206004820152602e60248201527f506169724c6f6769633a204572726f72203d3e204275726e696e67204661696c60448201526d0656420666f7220546f6b656e20360941b60648201526084016103df565b6006546110b590846112c8565b6006556001600160a01b03858116600081815260046020819052604080832083815560020192909255600154915163a9059cbb60e01b815290810192909252602482018590529091169063a9059cbb906044016020604051808303816000875af1158015611127573d6000803e3d6000fd5b505050506040513d601f19601f8201168201806040525081019061114b9190611a6d565b9050806111b15760405162461bcd60e51b815260206004820152602e60248201527f506169724c6f6769633a204572726f72203d3e204275726e696e67204661696c60448201526d656420666f7220546f6b656e203160901b60648201526084016103df565b6007546111be90836112c8565b6007556001600160a01b03851660009081526004602052604081206001810182905560030155600654156111f4576111f4611591565b506001949350505050565b60008260000361121157506000611235565b61121b8284611b3f565b9050816112288483611b56565b1461123557611235611b78565b92915050565b60006112478284611b8e565b90508281101561123557611235611b78565b600060038211156112ba5750806000611273600283611b56565b61127e906001611b8e565b90505b818110156112b4579050806002816112998186611b56565b6112a39190611b8e565b6112ad9190611b56565b9050611281565b50919050565b8115610ed957506001919050565b6000828211156112da576112da611b78565b6112e48284611adb565b9392505050565b60006112e48284611b56565b60005b6005548110156113c557600060058281548110611319576113196119a3565b60009182526020808320909101546006546001600160a01b039091168084526004909252604090922090925061135f91670de0b6b3a76400009161035791906002610f86565b6001600160a01b038216600090815260046020526040902090815560075461139691670de0b6b3a764000091610357916003610f86565b6001600160a01b03821660009081526004602052604090206001015550806113bd81611ba1565b9150506112fa565b50565b6000546001600160a01b039081169084160361144f576001600160a01b0384166000908152600460205260408120611406918491905b01549061123b565b6001600160a01b038516600090815260046020526040902090815561142e90829060016113fe565b6001600160a01b0385166000908152600460205260409020600101556114b9565b6001600160a01b038416600090815260046020526040902061147490839060016113fe565b6001600160a01b0385166000908152600460205260408120600181019290925561149f9183916113fe565b6001600160a01b0385166000908152600460205260409020555b50505050565b60005b6005548110156113c5576000600582815481106114e1576114e16119a3565b60009182526020808320909101546006546001600160a01b0390911680845260049092526040832091935061152692909161035791670de0b6b3a76400009190610f86565b6001600160a01b038216600090815260046020526040902060028101919091556007546115629161035790670de0b6b3a7640000906001610f86565b6001600160a01b038216600090815260046020526040902060030155508061158981611ba1565b9150506114c2565b60005b6005548110156113c5576000600582815481106115b3576115b36119a3565b60009182526020808320909101546006546001600160a01b039091168084526004909252604083209193506115f892909161035791670de0b6b3a76400009190610f86565b6001600160a01b038216600090815260046020526040902060028101919091556007546116349161035790670de0b6b3a7640000906001610f86565b6001600160a01b0382166000908152600460205260409020600381019190915560065461167091670de0b6b3a764000091610357916002610f86565b6001600160a01b03821660009081526004602052604090209081556007546116a791670de0b6b3a764000091610357916003610f86565b6001600160a01b03821660009081526004602052604090206001015550806116ce81611ba1565b915050611594565b60405180604001604052806002906020820280368337509192915050565b60006020828403121561170657600080fd5b5035919050565b80356001600160a01b0381168114610ed957600080fd5b60006020828403121561173657600080fd5b6112e48261170d565b6000806040838503121561175257600080fd5b61175b8361170d565b946020939093013593505050565b600080600080600060a0868803121561178157600080fd5b61178a8661170d565b94506117986020870161170d565b9350604086013592506117ad6060870161170d565b91506117bb6080870161170d565b90509295509295909350565b60408101818360005b60028110156117ef5781518352602092830192909101906001016117d0565b50505092915050565b6020808252825182820181905260009190848201906040850190845b818110156118395783516001600160a01b031683529284019291840191600101611814565b50909695505050505050565b600080600080600060a0868803121561185d57600080fd5b6118668661170d565b94506118746020870161170d565b93506118826040870161170d565b94979396509394606081013594506080013592915050565b634e487b7160e01b600052601160045260246000fd5b600181815b808511156118eb5781600019048211156118d1576118d161189a565b808516156118de57918102915b93841c93908002906118b5565b509250929050565b60008261190257506001611235565b8161190f57506000611235565b8160018114611925576002811461192f5761194b565b6001915050611235565b60ff8411156119405761194061189a565b50506001821b611235565b5060208310610133831016604e8410600b841016171561196e575081810a611235565b61197883836118b0565b806000190482111561198c5761198c61189a565b029392505050565b60006112e460ff8416836118f3565b634e487b7160e01b600052603260045260246000fd5b60208082526027908201527f506169724c6f6769633a204572726f72203d3e204e6f7420616c6c6f776564206040820152661d1bc818d85b1b60ca1b606082015260800190565b600060208284031215611a1257600080fd5b5051919050565b60208082526034908201527f506169724c6f6769633a204572726f72203d3e2042616c616e636520696e737560408201527306666696369656e7420666f7220546f6b656e20360641b606082015260800190565b600060208284031215611a7f57600080fd5b815180151581146112e457600080fd5b6020808252602c908201527f506169724c6f6769633a204572726f72203d3e204c697175696469747920616460408201526b64656420746f6f206c65737360a01b606082015260800190565b818103818111156112355761123561189a565b60208082526031908201527f506169724c6f6769633a204572726f72203d3e204c69717569646974792064696040820152700cccccae4cadcc6ca40e8dede40daeac6d607b1b606082015260800190565b80820281158282048414176112355761123561189a565b600082611b7357634e487b7160e01b600052601260045260246000fd5b500490565b634e487b7160e01b600052600160045260246000fd5b808201808211156112355761123561189a565b600060018201611bb357611bb361189a565b506001019056fea264697066735822122033b328dd19b39c22aba04a9667be5108a739be984075189d8089e94a5354188864736f6c63430008130033a2646970667358221220bc08a5430c10fb39dd4cb3c30c09adae84cf6d8c678cbbe5ea8053a2b72ff93364736f6c63430008130033",
  "linkReferences": {},
  "deployedLinkReferences": {}
}